:03000000020006F5
:0A005F00752B01786B76FF02000399
:03000300021A9D41
:10006900AF82BF3000400DEF24C640088F06EE2452
:10007900D0F58222BF4100400DEF24B940088F0618
:1000890074C92EF58222BF6100400BEF2499400606
:1000990074A92FF5822275820022120069E582C4B3
:1000A90054F0FF850882C007120069AE82D007EEBE
:1000B9002FF58222E582FF24F0500475825822EF41
:1000C90024F640088F0674302EF5822274372FF5F6
:1000D9008222758920758DF3759850438780D28E59
:1000E90022209804758200227582012210980280CC
:1000F900FB8599822285829910990280FB22AD8223
:10010900AE83AFF07C00C3EC95095029EC2DF9E4DE
:100119003EFA8F0389828A838BF0121E1DF582C0F5
:1001290007C006C005C0041200FED004D005D006E1
:10013900D0070C80D122AD82AE83AFF07C00C3EC36
:10014900950A5036EC2DF9E43EFA8F03C007C00634
:10015900C005C004C003C002C0011200F5A882D0C6
:1001690001D002D003D004D005D006D00789828AF5
:10017900838BF0E8121D2A0C80C422AD82AE83AFB6
:10018900F08D828E838FF0121E1DFCA3AD82AE838B
:100199008C82C007C006C0051200FED005D006D06B
:1001A900078D828E838FF0121E1D70D522C03E8569
:1001B900813EAF82E53E24FDF8E670328F05FE757B
:1001C9003F108E408D828E83C006C005121E6FAB14
:1001D90082D005D00653050F8B82C0051200BD12CF
:1001E90000FED0058D821200BD1200FE807BE53E27
:1001F90024FDF8B601737E00753F648E408F828EB0
:1002090083C007C006121E6FAC82D006D007753FA7
:10021900647540008F828E83C007C006C004121E19
:1002290039753F0A754000121E6FAB82D004D006A3
:10023900D007753F0A7540008F828E83C004C003C2
:10024900121E39AE82D003D00474302CF582C00658
:10025900C0031200FED00374302BF5821200FED0C9
:100269000674302EF5821200FED03E22C03E8581F2
:100279003EAD82AE83AFF07C00E53E24FDF8C3ECD1
:1002890096503B8D828E838FF0121E1DFBA3AD828B
:10029900AE83C007C006C005C004E53E24FCF8E6ED
:1002A900C0E08B821201B61581E53E24FBF88682F7
:1002B9001200FED004D005D006D0070C80BBD03E7A
:1002C90022C03E85813EC082C083C0F0C0E0E58186
:1002D9002406F581E53E2406F87601E53E2405F875
:1002E9007608A83E08E53E2407F9E6F70809E6F787
:1002F9000809E6F70809E6F77B01E53E2405F8C396
:10030900EB96503A753F0AE4F540F541F542E53E72
:100319002407F886820886830886F008E6C0031257
:100329001CC5AC82AD83AEF0FFD003E53E2407F8CF
:10033900A60408A60508A60608A6070B80BCE53E84
:100349002406F8E66030753F0AE4F540F541F542C8
:10035900E53E2407F886820886830886F008E612B7
:100369001C42AA82AB83AEF0FFEA4B4E4F6007E511
:100379003E2406F87600E53E2406F8E67026753F29
:100389000AE4F540F541F542E53E2407F88682087E
:1003990086830886F008E6121C42AC8274302CF57C
:1003A900821200FEE53E2405F816E53E2405F8E62E
:1003B90060030202EB853E81D03E221200EAE5820B
:1003C90060051200F580F4901EAB75F0801201846F
:1003D9001200F5AF82C0071200FE1200F5AE82C00E
:1003E900061200FE75820A1200FED006D0078E089A
:1003F9008F820200A3C03E85813EC082C083C0F0C7
:100409007C00C0041200EAE582D0046009C004122D
:1004190000F5D00480EC7B00C004C0031200F5AAEB
:1004290082C0021200FED002D003D004BA0A19A871
:100439003E08EC26FDE40836FE0886078D828E8389
:100449008FF0E4121D2A8031A83E08EB26FDE4084E
:1004590036FE0886078D828E838FF0EA121D2AE503
:100469003E24FDF8E6B5030C8D828E838FF0E412ED
:100479001D2A80050B8B04809F8C82853E81D03E8E
:10048900224390044390024390085390FE22AF8286
:100499007E005390FEE53F60035390F77D00EF30F7
:1004A900E70543900280035390FD8F04EC2CFF8EE7
:1004B90004EC2CFE439001E59030E203430601531E
:1004C90090FE0DBD080040D6E53F60034390088EBD
:1004D9008222AD82AE83AFF0E50C60035390F77CC6
:1004E90000C3EC950B502DEC2DF9E43EFA8F0389EE
:1004F900828A838BF0121E1DF9753F008982C0071D
:10050900C006C005C004120497D004D005D006D097
:10051900070C80CDE50C6003439008227F00753FEE
:10052900007582FFC007120497AE82D007BEFF0490
:10053900758200220FBFFE0040E4758201224390BC
:10054900087F00BF0A005010753F007582FFC00781
:10055900120497D0070F80EB22AF827EFF5390F7EA
:10056900C007C006120525D006D00774404FF58292
:10057900753F00C007C006120497D006D007851042
:1005890082753F00C007C006120497D006D00785C0
:100599000F82753F00C007C006120497D006D00726
:1005A900850E82753F00C007C006120497D006D099
:1005B90007850D82753F00C007C006120497D00653
:1005C900D007EF70047E958005BF08027E87753FCE
:1005D900008E82C007120497D0077E00753F007510
:1005E90082FFC007C006120497AD82D006D007ED7E
:1005F90030E70A8E040EBC19E37582FE22E4BF08B7
:100609000104FE7008BF3A02800302068FEE6033D0
:100619007E00BE03005014753F007582FFC006C0FE
:1006290005120497D005D0060E80E7753F00758244
:10063900FFC005120497AE82D005BEAA02803A75A2
:1006490082FF22BF3A33753F007582FFC00512044D
:1006590097AF82D005BFC00280047582FF227F0058
:10066900BF03005014753F007582FFC007C0051213
:100679000497D005D0070F80E7753F007582FFC04A
:1006890005120497D0058D8222AF82E4F50DF50E8F
:10069900F50FF510758237C007120562AE82D007D3
:1006A900BE010280047582FF2285110D85120E8517
:1006B900130F8514108F820205621205477F00E42B
:1006C900F50DF50EF50FF510758200C007120562DC
:1006D900AE82D007BE0102800A8F060FBE19E075EF
:1006E90082FE22750DAA750E01E4F50FF5107582CB
:1006F90008120562AF82BF010280047582FF227F62
:1007090000E4F511F512F513751440758229C00737
:10071900120692E582D007600A8F060FBE19E275AC
:1007290082FE22E4F50DF50EF50FF51075823A12E9
:100739000562E58260047582FF2275820022C03E4F
:1007490085813EAC82AD83AEF0FFE53E24FAF8E642
:1007590008467005F582020860E53E24FAF8E53E90
:1007690024FCF9E726FA09E70836FBC3E49A740280
:100779009B50067582010208605390F78C0D8D0E0F
:100789008E0F8F10758211120562E58260067582DF
:10079900FF0208607F00753F007582FFC0071204E1
:1007A90097AE82D007BEFF02800BBEFE0280127593
:1007B90082FD0208608F060FBEFFDB7582FE02080C
:1007C90060E53E24FCF8E53E24FAF9E726FE09E750
:1007D9000836FF7C007D0074FE2D4063753F00756F
:1007E90082FFC007C006C005C004120497AB82D0BF
:1007F90004D005D006D007E53E24FCF8C3EC96EDFD
:1008090008964034EC9EED9F502EC006C007E53E89
:1008190024FCF8ECC396FAED0896FFE53E24F7F8B8
:10082900EA26FAEF0836FF0886068A828F838EF059
:10083900EB121D2AD007D0060CBC009B0D809875C1
:100849003F007582FF120497753F007582FF1204FD
:1008590097439008758200D03E22AC82AD83AEF0FA
:10086900FFC015C016C017E4C0E07402C0E0E4C0C0
:10087900E0C0E08C828D838EF0EF120747E581247A
:10088900F9F58122AD82AE83AFF074012DFAE43E11
:10089900FB8F048A828B838CF0121E1DFC7A008DDB
:1008A900828E838FF0121E1D7F004AF582EF4CF570
:1008B9008322C03E85813EC082C083C0F0E5812489
:1008C90009F581E4FAFBFCFFE53E240CF87600E526
:1008D9003E240CF8B60400506FE53E2408F80808D9
:1008E90008A60418A60318A602187600E53E240CEB
:1008F900F886057E007403C39DFDE49EFEA83E08AC
:10090900ED26FFEE0836FE0886058F828E838DF070
:10091900121E1DFEE53E2404F8A606087600087698
:1009290000087600E53E2408F8E53E2404F9E74688
:10093900FA09E70846FB09E70846FC09E70846FF04
:10094900E53E240CF80680878A828B838CF0EF853C
:100959003E81D03E22AD82AE83AFF07C00EC2DF912
:10096900E43EFA8F0389828A838BF0121E1DFBEC09
:10097900253FF8E43540F9AA41888289838AF01233
:100989001E1DF8EBB50002800475820122EB70038D
:10099900F582220C80C7AD82AE83AFF07C00ECB546
:1009A900420475820022EC2DF9E43EFA8F03898214
:1009B9008A838BF0121E1DFBEC253FF8E43540F9C4
:1009C900AA41888289838AF0121E1DF8EBB50002BC
:1009D900800475820122EB7003F582220C80BFAD81
:1009E90082AE83AFF07C007B00BBFF00501BEB2D78
:1009F900F8E43EF98F02888289838AF0121E1D70FD
:100A0900038C82220B8B0480E07582FF22AD82AEBB
:100A190083AFF0740B2DFAE43EFB8F048A828B833B
:100A29008CF0121E1DFC30E10475820122EC30E2CB
:100A39000475820222EC30E30475820322740C2DC2
:100A4900FAE43EFB8F048A828B838CF0121E1DFA16
:100A5900A3121E1D4A70047582FF22740E2DFDE437
:100A69003EFE8D828E838FF0121E1DFDA3121E1D68
:100A7900FEA3121E1DFFA3121E1DFCED4E4F4C704E
:100A8900047582FE2275820022AD82AE83AFF07CAE
:100A990000BCFF00502FEC2DF9E43EFA8F03898248
:100AA9008A838BF0121E1DF8700122B86100401272
:100AB900E82485400DE824E0F889828A838BF012C6
:100AC9001D2A0C80CC2285821B85831C85F01D1272
:100AD9000A927C00BC0B005018EC2518F9E4351972
:100AE900FAAB1A89828A838BF07420121D2A0C8032
:100AF900E3740B2518FAE43519FBAC1A8A828B8347
:100B09008CF0E4121D2A7C007B00BB081DEB251B21
:100B1900F8E4351CF9AA1D888289838AF0121E1D02
:100B2900F8B82E02800475820122EB251BF8E43502
:100B39001CF9AA1D888289838AF0121E1DFA700386
:100B4900F58222BA2E02801CEB2518F8E43519F932
:100B5900AF1A888289838FF0EA121D2A0B8B04BB96
:100B6900090040A6751E0074FC251E5003020C13D3
:100B79007403B51E2C8C057E00AA1E7B00EA2DFD90
:100B8900EB3EFE0DBD00010EED251BFDEE351CFEF5
:100B9900AB1D8D828E838BF0121E1D60047582023F
:100BA900228C057E00AA1E7B00EA2DF8EB3EF9088F
:100BB900B8000109E8251BF8E9351CF9AF1D888241
:100BC90089838FF0121E1D7003F5822274082AF999
:100BD900E43BFFE92518F9EF3519F8AF1AEA2DFDBD
:100BE900EB3EFE0DBD00010EED251BFDEE351CFE95
:100BF900AB1D8D828E838BF0121E1DFD8982888329
:100C09008FF0121D2A051E020B7075820322C03E49
:100C190085813E05810581A93E0989057E007F40C0
:100C2900C001C005C006C0077402C0E0E4C0E0749A
:100C3900FEC0E0F4C0E0900000E4F5F0120747E5DB
:100C49008124F9F581D0018707BF550B098707BFB3
:100C5900AA057582008003758201853E81D03E22F6
:100C6900AF828F05E4CDC4CD6DCD54F0CD6DFE744A
:100C7900BE2DFD74013EFEEF24FB50047582012256
:100C89007484C0E07400C0E07440C0E07410C0E037
:100C9900E4C0E0C005C006900000E4F5F012074783
:100CA900E58124F9F581788886077843A6079000BD
:100CB9008C75F0401208BBAC82AD83AEF0FF78446E
:100CC900A60408A60508A60608A60790009075F0D0
:100CD900401208BBAC82AD83AEF0FF7848A6040889
:100CE900A60508A60608A607758200227F007E00D1
:100CF900BE0400502B8E82C007C006120C69D006B4
:100D0900D00778438605BD06148E058DF005F0746D
:100D190001800225E0D5F0FBFD8F044CFF0E80D049
:100D29008F8222901EBA75F080120184784C860455
:100D39000886050886060886078C828D838EF0EF63
:100D49001202CA75822C1200FE785286060886079E
:100D59007D007C008E828F838DF0EC1202CA758231
:100D69002C1200FE785486077E007D007C008F825D
:100D79008E838DF0EC1202CA75822C1200FE785017
:100D890086060886077D007C008E828F838DF0ECB5
:100D99001202CA75822C1200FE785586060886074B
:100DA9007D007C008E828F838DF0EC1202CA7582E1
:100DB9002C1200FE785986060886077D007C008E75
:100DC900828F838DF0EC1202CA75822C1200FE7894
:100DD9005786060886077D007C008E828F838DF0FA
:100DE900EC1202CA75822C1200FE785F860408860E
:100DF900050886060886078C828D838EF0EF12021D
:100E0900CA75822C1200FE78638604088605088656
:100E1900060886078C828D838EF0EF1202CA7582CE
:100E29002C1200FE7867860408860508860608865F
:100E3900078C828D838EF0EF1202CA75822C120004
:100E4900FE75820A0200FEAF82786BE6B50704756B
:100E5900820022786BA6078F82120C69E5826004F2
:100E69007582012278448604088605088606088664
:100E7900077494C0E07400C0E07440C0E07410C00E
:100E8900E0E4C0E0C0E0C0E08C828D838EF0EF1218
:100E99000747E58124F9F581784486040886050821
:100EA9008606088607784CA60408A60508A606083B
:100EB900A60790009F75F04012088DE5828583F0A2
:100EC9007852F608A6F078A186077854A60790000C
:100ED900A275F04012088DE5828583F07850F608F6
:100EE900A6F07844860408860508860608860774ED
:100EF90094C0E07400C0E07440C0E07410C0E0E445
:100F0900C0E07410C0E0E4C0E08C828D838EF0EF05
:100F1900120747E58124F9F58190009475F0401294
:100F2900088DE5828583F07855F608A6F09000953E
:100F390075F04012088DE5828583F07859F608A688
:100F4900F090009A75F04012088DAE82AF83785701
:100F5900A60608A607785286040886058C1F8D20E8
:100F6900752100752200785486058D3F75400075FE
:100F79004100754200851F828520838521F0E52285
:100F8900C007C006121DAFAA82AB83ACF0FDD00624
:100F9900D007785BA60208A60308A60408A6057868
:100FA9004C861F08862008862108862278508604E8
:100FB900088605E4FBFAEC251FF51FED3520F52021
:100FC900EB3521F521EA3522F522785FA61F08A61F
:100FD9002008A62108A622785586820886838E3F96
:100FE9008F40121D45AE82AF838E048F05E4FEFF4C
:100FF900EC251FF51FED3520F520EE3521F521EF04
:101009003522F5227863A61F08A62008A62108A67E
:1010190022785986020886038A82EBC42354E0C5E4
:1010290082C423C5826582C58254E0C5826582F582
:10103900837852863F088640121C19AA82AB83E442
:10104900FEFFEA251FFAEB3520FBEE3521FEEF35D1
:1010590022FF7867A60208A60308A60608A6077550
:10106900820022120E50E5826004758201227852B4
:101079008606088607BE0005BF0202800475820243
:101089002275820022901F0F75F080120184787EEC
:1010990086060886077D007C008E828F838DF0ECA2
:1010A9001202CA901F2275F0801201847F00BF08C6
:1010B900005010EF246CF98782C0071200FED00798
:1010C9000F80EB7F00BF03005010EF2474F9878273
:1010D900C0071200FED0070F80EB901F2A75F08021
:1010E900120184787886060886077D007C008E8246
:1010F9008F838DF0EC1202CA901F3375F0801201B4
:1011090084787A86040886050886060886078C820C
:101119008D838EF0EF1202CA901F3B75F080120189
:101129008478778682E4C0E01201B6158175820A57
:101139000200FE8582238583247859860408860562
:10114900C3E5239CE5249D400475820122786B86C2
:1011590082120E5078638625088626088627088617
:1011690028AE23E524C42354E0CEC423CE6ECE5446
:10117900E0CE6EFF7852862908862A85293F852A7E
:10118900408E828F83C007C006121C19AA82AB83C6
:10119900D006D007E4FCFDEA2525FAEB3526FBEC61
:1011A9003527FCED3528FD85293F852A408E828F1C
:1011B90083C005C004C003C002121D62AE82AF83A2
:1011C900D002D003D004D00574A4C0E07400C0E0FC
:1011D9007440C0E003C0E0E4C0E0C006C0078A82F2
:1011E9008B838CF0ED120747E58124F9F581787E30
:1011F900A62308A6247880760008760008760008D9
:1012090076007F00BF0800500FEF246CF9EF24A48B
:10121900F88606A7060F80EC7F08BF0B0050138FD6
:1012290006EE24F82474F9EF24A4F88606A7060F1D
:1012390080E878AF86077877A6079000BE75F040FA
:1012490012088DE5828583F07878F608A6F090007B
:10125900C075F0401208BBAC82AD83AEF0FF787A5E
:10126900A60408A60508A60608A60775820022781E
:101279006CE6FF70047582FF22BFE5047582E522E2
:10128900BF2E0475822E2290006C75F040120A164A
:10129900AF82BF0102801E90006C75F040120A16E1
:1012A900AF82BF0202800E90006C75F040120A16E0
:1012B900AF82BF03047582FE227582002212113C9F
:1012C900E58260047582FF22121278AF82BFFF04A3
:1012D9007582FF22EF7003F5822275820122787EE2
:1012E90076FF0876FF7877860774044F7877F622B9
:1012F900787E86060886078E828F83A31212C6AF70
:1013090082BFFF047582FF22BF010280E3EF70E014
:10131900F58222C03EE581F53E240CF581AD82AE11
:1013290083AFF0AC3E0C8C18751900751A408D828C
:101339008E838FF0C004120ACFE582D00460057550
:1013490082018061C0041212E7D0048C0774082C52
:10135900FEC007C0061212F9E582D006D007704216
:101369008F3FF54075414075420890006C75F0401B
:10137900C007C00612099FE582D006D00770D28E39
:101389003FF54075414075420390007475F040C0C7
:1013990007C00612099FE582D006D00770B3F5820F
:1013A9008003758202853E81D03E22C03EE581F5EB
:1013B9003E2409F581AE82AF83E53E2408F9A83EB3
:1013C90008A601087600087640EE2EFEEF33FF7876
:1013D9005286050886048D3F8C408E828F83C00714
:1013E900C006C005C004C001121D62AB82AA83D029
:1013F90001D004D005D006D007E53E2404F8C00189
:10140900795FE7F609E708F609E708F609E708F654
:10141900D0018D3F8C408E828F83C003C002C001F2
:10142900121C19AE82AF83D001D002D0038E048F73
:1014390005E4FEFFE53E2404F8EC26FCED0836FD44
:10144900EE0836FEEF0836FFC001A83E08E6C0E008
:1014590008E6C0E008E6C0E07402C0E0E4C0E0C00D
:1014690003C0028C828D838EF0EF120747E5812439
:10147900F9F581D001E904F886078F067F00870511
:101489007C00ED4FF582EC4EF583853E81D03E22FE
:10149900C03E85813EC082E5812410F581A83E08C1
:1014A900E67005F5820216FCA83E0886057E00ED69
:1014B90024FFFBEE34FFFCEB5205EC5206ED4E60C7
:1014C900067582FF0216FCA83E08087980E7F6092E
:1014D900E708F609E708F609E708F6787A860208C0
:1014E9008605088606088607A83E0808E6B502119B
:1014F90008E6B5050C08E6B5060708E6B507028053
:101509000280067582000216FC785B863F088640D9
:10151900088641088642A83E08088682088683080C
:1015290086F008E6121C42AB82AC83E53E240AF839
:10153900A60308A604A83E0808E608460846084681
:10154900601FE53E240AF8E6084670157878868219
:101559000886831213B4E5828583F07878F608A6A5
:10156900F078788607088606A83E08087967E7F6BE
:1015790009E708F609E708F609E708F6EF24FEF592
:1015890082EE34FFF583785486038B3F7540001251
:101599001D45AB82AF838F057E007F00A83E0808FA
:1015A900EB26F6ED0836F6EE0836F6EF0836F6784D
:1015B9005286020886048A3F8C40E53E240AF88652
:1015C90082088683C004C002121C19AE82AF83D080
:1015D90002D0047D007B00A83E0808EE26FEEF0835
:1015E90036FFED0836FDEB0836FBE53E240EF8A67E
:1015F9000608A60708A60508A6038A3F8C40E53E0B
:10160900240AF88682088683121D62C8E53E240CE6
:10161900C8A68208A683A83E08087980E7F609E7E4
:1016290008F609E708F609E708F6A83E0886037DE3
:10163900007E007F00A83E0808EB26FBED0836FD7A
:10164900EE0836FEEF0836FFE53E2406F8797AE71C
:10165900F609E708F609E708F609E708F6E53E247A
:1016690006F8C3E69B08E69D08E69E08E69F501427
:10167900E53E2406F88607A83E08088602A83E0823
:10168900EFC39AF6A83E0886047D007E007F00A875
:101699003E0808EC26FCED0836FDEE0836FEEF089C
:1016A90036FF7880A60408A60508A60608A607A896
:1016B9003E0886067F00E53E24FBF8E6C0E008E622
:1016C900C0E008E6C0E0C006C007E53E240CF8E625
:1016D900C0E008E6C0E0E53E240EF886820886836D
:1016E9000886F008E6120747E58124F9F581A83E46
:1016F900088682853E81D03E22C03EE581F53E24A2
:1017090008F58112131CE582600B901F4575F08066
:101719001201848042AF3E0F8F047D007E40C007D6
:10172900C004C005C006758208121499AE821581DD
:1017390015811581D0077D00C3ED9E5017ED2FF956
:101749008782C007C006C0051200FED005D006D0AA
:10175900070D80E4EE70C1853E81D03E229015557B
:1017690074AAF0900AAAF4F09015557480F074AA3E
:10177900F0900AAAF4F09015557420F0758244127D
:1017890000FE752B0022752B017582450200FE12A1
:1017990000EAE58260F91200F5AE827F00C007C059
:1017A900061200F5AD82D006D0077C00ED4207ECA9
:1017B9004206C007C0061200F5AD82D006D007E583
:1017C9002B601190155574AAF0900AAAF4F090159F
:1017D9005574A0F08F828E83EDF07582570200FE5A
:1017E9001200EAE58260F91200F5AE827F00C007B7
:1017F900C0061200F5AD82D006D0077C00ED420785
:10180900EC42068F828E83E0F5820200FE1200EA26
:10181900E58260051200F580F41200EAE58260F9BC
:101829001200F5AF82BF4402803ABF4502803EBF35
:101839005202801EBF5602800ABF5702801DBF5840
:10184900388033901C0675F080C007120184D007D8
:101859008027C0071217E9D007801EC00712179802
:10186900D0078015C007121766D007800CC0071271
:10187900178FD00780035390EF8F8222120C17E540
:10188900826009901F5675F080120184120CF5E5EB
:1018990082FFFE7003021A0B7F00EE24FFFCEF3477
:1018A900FFFDEE5204EF5205EC4D7068FDFCBC04DF
:1018B900004001228CF005F07A017B008006EA2ABB
:1018C900FAEB33FBD5F0F7EE5202EF5203EA4B6025
:1018D9003E8D82C005120E50901F6075F080120176
:1018E90084D005C005E4C0E08D821201B61581D00F
:1018F900058D8212106CE582700122901F6E75F0C1
:1019090080120184901C1375F08012018480FE0CF2
:101919008C05809A7D00BD04005075901F7E75F07E
:1019290080C007C006C005120184D005C005E4C007
:10193900E08D821201B6158175823E1200FED00536
:10194900D006D0078DF005F07B017C008006EB2BDB
:10195900FBEC33FCD5F0F7EE5203EF5204EB4C608D
:1019690017901F8475F080C007C006C00512018456
:10197900D005D006D0078015901F8B75F080C00761
:10198900C006C005120184D005D006D0070D808697
:10199900901F9475F080C007C0061201841203C419
:1019A900AD82D006D007BD040050438DF005F07B11
:1019B900017C008006EB2BFBEC33FCD5F0F7EB52F6
:1019C90006EC5207EE4F6026901F6075F080C00547
:1019D900120184D005C005E4C0E08D821201B6155C
:1019E9008175820A1200FED0058D82020E50901F69
:1019F900A275F080120184901C1375F08012018485
:101A090080FE901FAC75F080120184901C1375F054
:101A19008012018480FE1212E7901FBB75F08012BC
:101A290001847F00BFFF005058C0071212F9AE822F
:101A3900D007BEFF02804AEE7044787E8606C00752
:101A49007401C0E08E821201B615817582091200F7
:101A5900FE7582091200FED0077E00BE0B005014ED
:101A6900EE246CF98782C007C0061200FED006D0AA
:101A7900070E80E775820AC0071200FED0070F80A3
:101A8900A3901FC975F0801201841203C47E008ED1
:101A9900830212C67F00C0071200DB12048A1206F5
:101AA900C3D007C0071200EAE582D0076009C00762
:101AB9001200F5D00780EC7D007E00C3ED94E8EEBE
:101AC90094FD502BC007C006C0051200EAE582D07C
:101AD90005D006D00760071200F5AF8280117C009F
:101AE900BC030050030C80F80DBD00CF0E80CCBFA5
:101AF9005610901FD775F080120184121816E582CE
:101B090070F9121885901FE575F08012131CE58293
:101B19007011901FE575F08012018475820A120018
:101B2900FE8003121A1F788086060886078E3C8F6E
:101B39003D742CC0E07400C0E07440C0E0758210B0
:101B4900121499AD82158115811581ED7003021B5F
:101B5900E67D00BD1000505578808602088603088E
:101B690086040886078A828B838CF0EFC0051202EF
:101B7900CA75822F1200FE787A86030886040886C1
:101B8900060886078B828C838EF0EF1202CA901F9B
:101B9900EC75F080120184D005ED253CF582E43521
:101BA9003DF583ED242CF9E7FFF00D80A67F00BFFA
:101BB90010004003021B2FEF242CF98706EF253C68
:101BC900F582E4353DF583E0FDEEB50502800B9025
:101BD9001FEE75F08012018480FE0F80D25390EFC2
:021BE90080FE7C
:101EAB004E756D6265722868657829203C20005656
:101EBB0042523A2073746172742C6270732C73707B
:101ECB00632C7265736572766564536563746F72A8
:101EDB00732C6E6661742C6E726F6F74652C7370DD
:101EEB00662C6661745F73746172742C726F6F749D
:101EFB00655F73746172742C646174615F73746178
:101F0B0072740A000A524F4F545F454E5452595F38
:101F1B00494E4445583A000A46494C453A20000A76
:101F2B0053544152543A20000A53495A453A20001F
:0A1F3B000A415454523A2030780055
:101BEB006E6279746573206D7573742062652070F5
:0B1BFB006F776572206F6620320A00D1
:101F450046494C45204E4F5420464F554E440A2E87
:011F5500008B
:101C06004953413A53303A383035320A0048414C4C
:031C160054210056
:101F5600424144204D4252210A0050746E2E204DBB
:101F66006F756E7465643A00496E636D7061742EA8
:101F76002046415431360A0050746E2E20004641E8
:101F86005431360A00556E6B6E6F776E0A000A532F
:101F96006C63742050746E2E203E0A0042616420E9
:101FA60050746E2E0A004E6F204641543136205032
:101FB600746E2E0A00494E444558090946494C4557
:101FC6000A0A00536C637420696E646578203E0AC1
:101FD600004953413A4653303A383035320A0046C2
:101FE600572E42494E000D000A56657269662E202C
:051FF6006661696C004A
:101C19007A10E4FBFCE58225E0F582E58333F58360
:101C2900EB33FBEC33FCEB953FF5F0EC95404006CC
:101C3900FCABF0438201DADD22F9E53F454045413D
:101C4900454260777800C308E54220E73BE53F2538
:101C5900E0F53FE54033F540E54133F541E54233F1
:101C6900F542E582953FE5839540E5F09541E99593
:101C79004250D4C3E54213F542E54113F541E5402D
:101C890013F540E53F13F53FE582953FFCE5839564
:101C990040FDE5F09541FEE995424007F98EF08D4A
:101CA900838C82C3E54213F542E54113F541E540D2
:101CB90013F540E53F13F53FD8CEE922FB7A20E43E
:101CC900FCFDFEFFE5822582F582E58333F583E598
:101CD900F033F5F0EB33FB4017DAE98042E5822572
:101CE90082F582E58333F583E5F033F5F0EB33FBD9
:101CF900EC33FCED33FDEE33FEEF33FFEC953FEDB6
:101D09009540EE9541EF95424013EC953FFCED95DA
:101D190040FDEE9541FEEF9542FF438201DABEEBAD
:011D29002297
:06003500E478FFF6D8FD9F
:100013007900E94400601B7A00901FFB780175A00A
:1000230000E493F2A308B8000205A0D9F4DAF2754C
:02003300A0FF2C
:101D2A0020F71130F6138883A88220F509F6A883D4
:101D3A007583002280FEF280F5F022E582853FF06D
:101D4A00A4C582C0F08540F0A4D0F025F0C58385F3
:101D5A003FF0A42583F58322E53F454060467A019A
:101D6A00E53F25E0F53FE540334012F540E5829531
:101D7A003FE583954040030A80E6C3E54013F540FA
:101D8A00E53F13F53FC3E582953FF5F0E5839540BE
:101D9A004005F58385F082C3E54013F540E53F131E
:101DAA00F53FDAE122AAF0FBE582853FF0A4FCAD1B
:101DBA00F0E583853FF0A42DFDE435F0FEE582854C
:101DCA0040F0A42DFDE5F03EFEE433FFEA853FF046
:101DDA00A42EFEE5F03FFFE5838540F0A42EFEE544
:101DEA00F03FFFE5828541F0A42EFEE5F03FFFEBD0
:101DFA00853FF0A42FFFEA8540F0A42FFFE58385F5
:101E0A0041F0A42FFFE5828542F0A42F8EF08D8346
:031E1A008C822295
:10003B007800E84400600A790175A000E4F309D860
:10004B00FC7800E84400600C7900900001E4F0A318
:04005B00D8FCD9FAFA
:0D0006007581C3121EA7E58260030200038E
:101E1D0020F71430F6148883A88220F507E6A883EE
:101E2D0075830022E280F7E49322E022C2D5E58398
:101E3D0030E70DD2D5E4C39582F582E49583F58321
:101E4D00E54030E70BE4C3953FF53FE49540F540A1
:101E5D00121D6230D50BE4C39582F582E49583F5AE
:101E6D008322C2D5E58330E70DD2D5E4C39582F543
:101E7D0082E49583F583E54030E70DB2D5E4C39553
:101E8D003FF53FE49540F540121C1930D50BE4C3E6
:0E1E9D009582F582E49583F5832275820022FA
:00000001FF
