:03000000020006F5
:0A005F00752B01786976FF0200039B
:03000300021A835B
:10006900AF82BF3000400DEF24C640088F06EE2452
:10007900D0F58222BF4100400DEF24B940088F0618
:1000890074C92EF58222BF6100400BEF2499400606
:1000990074A92FF5822275820022120069E582C4B3
:1000A90054F0FF850882C007120069AE82D007EEBE
:1000B9002FF58222E582FF24F0500475825822EF41
:1000C90024F640088F0674302EF5822274372FF5F6
:1000D9008222758920758DF3759850438780D28E59
:1000E90022209804758200227582012210980280CC
:1000F900FB8599822285829910990280FB22AD8223
:10010900AE83AFF07C00C3EC95095029EC2DF9E4DE
:100119003EFA8F0389828A838BF0121DFFF582C014
:1001290007C006C005C0041200FED004D005D006E1
:10013900D0070C80D122AD82AE83AFF07C00C3EC36
:10014900950A5036EC2DF9E43EFA8F03C007C00634
:10015900C005C004C003C002C0011200F5A882D0C6
:1001690001D002D003D004D005D006D00789828AF5
:10017900838BF0E8121D0C0C80C422AD82AE83AFD4
:10018900F08D828E838FF0121DFFFCA3AD82AE83AA
:100199008C82C007C006C0051200FED005D006D06B
:1001A900078D828E838FF0121DFF70D522C03C858A
:1001B900813CAF82E53C24FDF8E670328F05FE757F
:1001C9003D108E3E8D828E83C006C005121E51AB36
:1001D90082D005D00653050F8B82C0051200BD12CF
:1001E90000FED0058D821200BD1200FE807BE53C29
:1001F90024FDF8B601737E00753D648E3E8F828EB4
:1002090083C007C006121E51AC82D006D007753DC7
:1002190064753E008F828E83C007C006C004121E1B
:100229001B753D0A753E00121E51AB82D004D006E3
:10023900D007753D0A753E008F828E83C004C003C6
:10024900121E1BAE82D003D00474302CF582C00676
:10025900C0031200FED00374302BF5821200FED0C9
:100269000674302EF5821200FED03C22C03C8581F6
:100279003CAD82AE83AFF07C00E53C24FDF8C3ECD5
:1002890096503B8D828E838FF0121DFFFBA3AD82AA
:10029900AE83C007C006C005C004E53C24FCF8E6EF
:1002A900C0E08B821201B61581E53C24FBF88682F9
:1002B9001200FED004D005D006D0070C80BBD03C7C
:1002C90022C03C85813CC082C083C0F0C0E0E5818A
:1002D9002406F581E53C2406F87601E53C2405F879
:1002E9007608A83C08E53C2407F9E6F70809E6F78B
:1002F9000809E6F70809E6F77B01E53C2405F8C398
:10030900EB96503A753D0AE4F53EF53FF540E53C7C
:100319002407F886820886830886F008E6C0031257
:100329001CA7AC82AD83AEF0FFD003E53C2407F8EF
:10033900A60408A60508A60608A6070B80BCE53C86
:100349002406F8E66030753D0AE4F53EF53FF540D0
:10035900E53C2407F886820886830886F008E612B9
:100369001C24AA82AB83AEF0FFEA4B4E4F6007E52F
:100379003C2406F87600E53C2406F8E67026753D2F
:100389000AE4F53EF53FF540E53C2407F886820886
:1003990086830886F008E6121C24AC8274302CF59A
:1003A900821200FEE53C2405F816E53C2405F8E632
:1003B90060030202EB853C81D03C221200EAE5820F
:1003C90060051200F580F4901E8D75F0801201848D
:1003D9001200F5AF82C0071200FE1200F5AE82C00E
:1003E900061200FE75820A1200FED006D0078E089A
:1003F9008F820200A3C03C85813CC082C083C0F0CB
:100409007C00C0041200EAE582D0046009C004122D
:1004190000F5D00480EC7B00C004C0031200F5AAEB
:1004290082C0021200FED002D003D004BA0A19A871
:100439003C08EC26FDE40836FE0886078D828E838B
:100449008FF0E4121D0C8031A83C08EB26FDE4086E
:1004590036FE0886078D828E838FF0EA121D0CE521
:100469003C24FDF8E6B5030C8D828E838FF0E412EF
:100479001D0C80050B8B04809F8C82853C81D03CB0
:10048900224390044390024390085390FE22AF8286
:100499007E005390FEE53D60035390F77D00EF30F9
:1004A900E70543900280035390FD8F04EC2CFF8EE7
:1004B90004EC2CFE439001E59030E203430601531E
:1004C90090FE0DBD080040D6E53D60034390088EBF
:1004D9008222AD82AE83AFF0E50C60035390F77CC6
:1004E90000C3EC950B502DEC2DF9E43EFA8F0389EE
:1004F900828A838BF0121DFFF9753D008982C0073E
:10050900C006C005C004120497D004D005D006D097
:10051900070C80CDE50C6003439008227F00753DF0
:10052900007582FFC007120497AE82D007BEFF0490
:10053900758200220FBFFE0040E4758201224390BC
:10054900087F00BF0A005010753D007582FFC00783
:10055900120497D0070F80EB22AF827EFF5390F7EA
:10056900C007C006120525D006D00774404FF58292
:10057900753D00C007C006120497D006D007851044
:1005890082753D00C007C006120497D006D00785C2
:100599000F82753D00C007C006120497D006D00728
:1005A900850E82753D00C007C006120497D006D09B
:1005B90007850D82753D00C007C006120497D00655
:1005C900D007EF70047E958005BF08027E87753DD0
:1005D900008E82C007120497D0077E00753D007512
:1005E90082FFC007C006120497AD82D006D007ED7E
:1005F90030E70A8E040EBC19E37582FE22E4BF08B7
:100609000104FE7008BF3A02800302068FEE6033D0
:100619007E00BE03005014753D007582FFC006C000
:1006290005120497D005D0060E80E7753D00758246
:10063900FFC005120497AE82D005BEAA02803A75A2
:1006490082FF22BF3A33753D007582FFC00512044F
:1006590097AF82D005BFC00280047582FF227F0058
:10066900BF03005014753D007582FFC007C0051215
:100679000497D005D0070F80E7753D007582FFC04C
:1006890005120497D0058D8222AF82E4F50DF50E8F
:10069900F50FF510758237C007120562AE82D007D3
:1006A900BE010280047582FF2285110D85120E8517
:1006B900130F8514108F820205621205477F00E42B
:1006C900F50DF50EF50FF510758200C007120562DC
:1006D900AE82D007BE0102800A8F060FBE19E075EF
:1006E90082FE22750DAA750E01E4F50FF5107582CB
:1006F90008120562AF82BF010280047582FF227F62
:1007090000E4F511F512F513751440758229C00737
:10071900120692E582D007600A8F060FBE19E275AC
:1007290082FE22E4F50DF50EF50FF51075823A12E9
:100739000562E58260047582FF2275820022C03C51
:1007490085813CAC82AD83AEF0FFE53C24FAF8E646
:1007590008467005F582020860E53C24FAF8E53C94
:1007690024FCF9E726FA09E70836FBC3E49A740280
:100779009B50067582010208605390F78C0D8D0E0F
:100789008E0F8F10758211120562E58260067582DF
:10079900FF0208607F00753D007582FFC0071204E3
:1007A90097AE82D007BEFF02800BBEFE0280127593
:1007B90082FD0208608F060FBEFFDB7582FE02080C
:1007C90060E53C24FCF8E53C24FAF9E726FE09E754
:1007D9000836FF7C007D0074FE2D4063753D007571
:1007E90082FFC007C006C005C004120497AB82D0BF
:1007F90004D005D006D007E53C24FCF8C3EC96EDFF
:1008090008964034EC9EED9F502EC006C007E53C8B
:1008190024FCF8ECC396FAED0896FFE53C24F7F8BA
:10082900EA26FAEF0836FF0886068A828F838EF059
:10083900EB121D0CD007D0060CBC009B0D809875DF
:100849003D007582FF120497753D007582FF120401
:1008590097439008758200D03C22AC82AD83AEF0FC
:10086900FFC015C016C017E4C0E07402C0E0E4C0C0
:10087900E0C0E08C828D838EF0EF120747E581247A
:10088900F9F58122AD82AE83AFF074012DFAE43E11
:10089900FB8F048A828B838CF0121DFFFC7A008DFA
:1008A900828E838FF0121DFF7F004AF582EF4CF58F
:1008B9008322C03C85813CC082C083C0F0E581248D
:1008C90009F581E4FAFBFCFFE53C240CF87600E528
:1008D9003C240CF8B60400506FE53C2408F80808DD
:1008E90008A60418A60318A602187600E53C240CED
:1008F900F886057E007403C39DFDE49EFEA83C08AE
:10090900ED26FFEE0836FE0886058F828E838DF070
:10091900121DFFFEE53C2404F8A6060876000876B9
:1009290000087600E53C2408F8E53C2404F9E7468C
:10093900FA09E70846FB09E70846FC09E70846FF04
:10094900E53C240CF80680878A828B838CF0EF853E
:100959003C81D03C22AD82AE83AFF07C00EC2DF916
:10096900E43EFA8F0389828A838BF0121DFFFBEC28
:10097900253DF8E4353EF9AA3F888289838AF01239
:100989001DFFF8EBB50002800475820122EB7003AC
:10099900F582220C80C7AD82AE83AFF07C00ECB546
:1009A900400475820022EC2DF9E43EFA8F03898216
:1009B9008A838BF0121DFFFBEC253DF8E4353EF9E7
:1009C900AA3F888289838AF0121DFFF8EBB50002DD
:1009D900800475820122EB7003F582220C80BFAD81
:1009E90082AE83AFF07C007B00BBFF00501BEB2D78
:1009F900F8E43EF98F02888289838AF0121DFF701C
:100A0900038C82220B8B0480E07582FF22AD82AEBB
:100A190083AFF0740B2DFAE43EFB8F048A828B833B
:100A29008CF0121DFFFC30E10475820122EC30E2EA
:100A39000475820222EC30E30475820322740C2DC2
:100A4900FAE43EFB8F048A828B838CF0121DFFFA35
:100A5900A3121DFF4A70047582FF22740E2DFDE456
:100A69003EFE8D828E838FF0121DFFFDA3121DFFA6
:100A7900FEA3121DFFFFA3121DFFFCED4E4F4C708C
:100A8900047582FE2275820022AD82AE83AFF07CAE
:100A990000BCFF00502FEC2DF9E43EFA8F03898248
:100AA9008A838BF0121DFFF8700122B86100401291
:100AB900E82485400DE824E0F889828A838BF012C6
:100AC9001D0C0C80CC2285821B85831C85F01D1290
:100AD9000A927C00BC0B005018EC2518F9E4351972
:100AE900FAAB1A89828A838BF07420121D0C0C8050
:100AF900E3740B2518FAE43519FBAC1A8A828B8347
:100B09008CF0E4121D0C7C007B00BB081DEB251B3F
:100B1900F8E4351CF9AA1D888289838AF0121DFF21
:100B2900F8B82E02800475820122EB251BF8E43502
:100B39001CF9AA1D888289838AF0121DFFFA7003A5
:100B4900F58222BA2E02801CEB2518F8E43519F932
:100B5900AF1A888289838FF0EA121D0C0B8B04BBB4
:100B6900090040A6751E0074FC251E5003020C13D3
:100B79007403B51E2C8C057E00AA1E7B00EA2DFD90
:100B8900EB3EFE0DBD00010EED251BFDEE351CFEF5
:100B9900AB1D8D828E838BF0121DFF60047582025E
:100BA900228C057E00AA1E7B00EA2DF8EB3EF9088F
:100BB900B8000109E8251BF8E9351CF9AF1D888241
:100BC90089838FF0121DFF7003F5822274082AF9B8
:100BD900E43BFFE92518F9EF3519F8AF1AEA2DFDBD
:100BE900EB3EFE0DBD00010EED251BFDEE351CFE95
:100BF900AB1D8D828E838BF0121DFFFD8982888348
:100C09008FF0121D0C051E020B7075820322C03C69
:100C190085813C05810581A93C0989057E007F40C4
:100C2900C001C005C006C0077402C0E0E4C0E0749A
:100C3900FEC0E0F4C0E0900000E4F5F0120747E5DB
:100C49008124F9F581D0018707BF550B098707BFB3
:100C5900AA057582008003758201853C81D03C22FA
:100C6900AF828F05E4CDC4CD6DCD54F0CD6DFE744A
:100C7900BE2DFD74013EFEEF24FB50047582012256
:100C89007482C0E07400C0E07440C0E07410C0E039
:100C9900E4C0E0C005C006900000E4F5F012074783
:100CA900E58124F9F581788686077841A6079000C1
:100CB9008A75F0401208BBAC82AD83AEF0FF784272
:100CC900A60408A60508A60608A60790008E75F0D2
:100CD900401208BBAC82AD83AEF0FF7846A604088B
:100CE900A60508A60608A607758200227F007E00D1
:100CF900BE0400502B8E82C007C006120C69D006B4
:100D0900D00778418605BD06148E058DF005F0746F
:100D190001800225E0D5F0FBFD8F044CFF0E80D049
:100D29008F8222901E9C75F080120184784A860475
:100D39000886050886060886078C828D838EF0EF63
:100D49001202CA75822C1200FE78508606088607A0
:100D59007D007C008E828F838DF0EC1202CA758231
:100D69002C1200FE785286077E007D007C008F825F
:100D79008E838DF0EC1202CA75822C1200FE784E19
:100D890086060886077D007C008E828F838DF0ECB5
:100D99001202CA75822C1200FE785386060886074D
:100DA9007D007C008E828F838DF0EC1202CA7582E1
:100DB9002C1200FE785786060886077D007C008E77
:100DC900828F838DF0EC1202CA75822C1200FE7894
:100DD9005586060886077D007C008E828F838DF0FC
:100DE900EC1202CA75822C1200FE785D8604088610
:100DF900050886060886078C828D838EF0EF12021D
:100E0900CA75822C1200FE78618604088605088658
:100E1900060886078C828D838EF0EF1202CA7582CE
:100E29002C1200FE78658604088605088606088661
:100E3900078C828D838EF0EF1202CA75822C120004
:100E4900FE75820A0200FEAF827869E6B50704756D
:100E59008200227869A6078F82120C69E5826004F4
:100E69007582012278428604088605088606088666
:100E7900077492C0E07400C0E07440C0E07410C010
:100E8900E0E4C0E0C0E0C0E08C828D838EF0EF1218
:100E99000747E58124F9F581784286040886050823
:100EA9008606088607784AA60408A60508A606083D
:100EB900A60790009D75F04012088DE5828583F0A4
:100EC9007850F608A6F0789F86077852A607900012
:100ED900A075F04012088DE5828583F0784EF608FA
:100EE900A6F07842860408860508860608860774EF
:100EF90092C0E07400C0E07440C0E07410C0E0E447
:100F0900C0E07410C0E0E4C0E08C828D838EF0EF05
:100F1900120747E58124F9F58190009275F0401296
:100F2900088DE5828583F07853F608A6F090009342
:100F390075F04012088DE5828583F07857F608A68A
:100F4900F090009875F04012088DAE82AF83785505
:100F5900A60608A607785086040886058C1F8D20EA
:100F6900752100752200785286058D3D753E007504
:100F79003F00754000851F828520838521F0E52289
:100F8900C007C006121D91AA82AB83ACF0FDD00642
:100F9900D0077859A60208A60308A60408A605786A
:100FA9004A861F088620088621088622784E8604EC
:100FB900088605E4FBFAEC251FF51FED3520F52021
:100FC900EB3521F521EA3522F522785DA61F08A621
:100FD9002008A62108A622785386820886838E3D9A
:100FE9008F3E121D27AE82AF838E048F05E4FEFF6C
:100FF900EC251FF51FED3520F520EE3521F521EF04
:101009003522F5227861A61F08A62008A62108A680
:1010190022785786020886038A82EBC42354E0C5E6
:1010290082C423C5826582C58254E0C5826582F582
:10103900837850863D08863E121BFBAA82AB83E467
:10104900FEFFEA251FFAEB3520FBEE3521FEEF35D1
:1010590022FF7865A60208A60308A60608A6077552
:10106900820022120E50E5826004758201227850B6
:101079008606088607BE0005BF0202800475820243
:101089002275820022901EF175F080120184787C0D
:1010990086060886077D007C008E828F838DF0ECA2
:1010A9001202CA901F0475F0801201847F00BF08E4
:1010B900005010EF246AF98782C0071200FED0079A
:1010C9000F80EB7F00BF03005010EF2472F9878275
:1010D900C0071200FED0070F80EB901F0C75F0803F
:1010E900120184787686060886077D007C008E8248
:1010F9008F838DF0EC1202CA901F1575F0801201D2
:1011090084787886040886050886060886078C820E
:101119008D838EF0EF1202CA901F1D75F0801201A7
:101129008478758682E4C0E01201B6158175820A59
:101139000200FE8582238583247857860408860564
:10114900C3E5239CE5249D400475820122786986C4
:1011590082120E5078618625088626088627088619
:1011690028AE23E524C42354E0CEC423CE6ECE5446
:10117900E0CE6EFF7850862908862A85293D852A82
:101189003E8E828F83C007C006121BFBAA82AB83E7
:10119900D006D007E4FCFDEA2525FAEB3526FBEC61
:1011A9003527FCED3528FD85293D852A3E8E828F20
:1011B90083C005C004C003C002121D44AE82AF83C0
:1011C900D002D003D004D00574A2C0E07400C0E0FE
:1011D9007440C0E003C0E0E4C0E0C006C0078A82F2
:1011E9008B838CF0ED120747E58124F9F581787C32
:1011F900A62308A624787E760008760008760008DB
:1012090076007F00BF0800500FEF246AF9EF24A28F
:10121900F88606A7060F80EC7F08BF0B0050138FD6
:1012290006EE24F82472F9EF24A2F88606A7060F21
:1012390080E878AD86077875A6079000BC75F04000
:1012490012088DE5828583F07876F608A6F090007D
:10125900BE75F0401208BBAC82AD83AEF0FF787862
:10126900A60408A60508A60608A60775820022781E
:101279006AE6FF70047582FF22BFE5047582E522E4
:10128900BF2E0475822E2290006A75F040120A164C
:10129900AF82BF0102801E90006A75F040120A16E3
:1012A900AF82BF0202800E90006A75F040120A16E2
:1012B900AF82BF03047582FE227582002212113C9F
:1012C900E58260047582FF22121278AF82BFFF04A3
:1012D9007582FF22EF7003F5822275820122787CE4
:1012E90076FF0876FF7875860774044F7875F622BD
:1012F900787C86060886078E828F83A31212C6AF72
:1013090082BFFF047582FF22BF010280E3EF70E014
:10131900F58222C03CE581F53C240CF581AD82AE15
:1013290083AFF0AC3C0C8C18751900751A408D828E
:101339008E838FF0C004120ACFE582D00460057550
:1013490082018061C0041212E7D0048C0774082C52
:10135900FEC007C0061212F9E582D006D007704216
:101369008F3DF53E753F4075400890006A75F04025
:10137900C007C00612099FE582D006D00770D28E39
:101389003DF53E753F4075400390007275F040C0D1
:1013990007C00612099FE582D006D00770B3F5820F
:1013A9008003758202853C81D03C22C03CE581F5F1
:1013B9003C2409F581AE82AF83E53C2408F9A83CB9
:1013C90008A601087600087640EE2EFEEF33FF7876
:1013D9005086050886048D3D8C3E8E828F83C0071A
:1013E900C006C005C004C001121D44AB82AA83D047
:1013F90001D004D005D006D007E53C2404F8C0018B
:10140900795DE7F609E708F609E708F609E708F656
:10141900D0018D3D8C3E8E828F83C003C002C001F6
:10142900121BFBAE82AF83D001D002D0038E048F92
:1014390005E4FEFFE53C2404F8EC26FCED0836FD46
:10144900EE0836FEEF0836FFC001A83C08E6C0E00A
:1014590008E6C0E008E6C0E07402C0E0E4C0E0C00D
:1014690003C0028C828D838EF0EF120747E5812439
:10147900F9F581D001E904F886078F067F00870511
:101489007C00ED4FF582EC4EF583853C81D03C2202
:10149900C03C85813CC082E5812410F581A83C08C7
:1014A900E67005F5820216FCA83C0886057E00ED6B
:1014B90024FFFBEE34FFFCEB5205EC5206ED4E60C7
:1014C900067582FF0216FCA83C0808797EE7F60932
:1014D900E708F609E708F609E708F67878860208C2
:1014E9008605088606088607A83C0808E6B502119D
:1014F90008E6B5050C08E6B5060708E6B507028053
:101509000280067582000216FC7859863D08863EDF
:1015190008863F088640A83C080886820886830812
:1015290086F008E6121C24AB82AC83E53C240AF859
:10153900A60308A604A83C0808E608460846084683
:10154900601FE53C240AF8E608467015787686821D
:101559000886831213B4E5828583F07876F608A6A7
:10156900F078768607088606A83C08087965E7F6C4
:1015790009E708F609E708F609E708F6EF24FEF592
:1015890082EE34FFF583785286038B3D753E001257
:101599001D27AB82AF838F057E007F00A83C08081A
:1015A900EB26F6ED0836F6EE0836F6EF0836F6784D
:1015B9005086020886048A3D8C3EE53C240AF8865A
:1015C90082088683C004C002121BFBAE82AF83D09F
:1015D90002D0047D007B00A83C0808EE26FEEF0837
:1015E90036FFED0836FDEB0836FBE53C240EF8A680
:1015F9000608A60708A60508A6038A3D8C3EE53C11
:10160900240AF88682088683121D44C8E53C240C06
:10161900C8A68208A683A83C0808797EE7F609E7E8
:1016290008F609E708F609E708F6A83C0886037DE5
:10163900007E007F00A83C0808EB26FBED0836FD7C
:10164900EE0836FEEF0836FFE53C2406F87978E720
:10165900F609E708F609E708F609E708F6E53C247C
:1016690006F8C3E69B08E69D08E69E08E69F501427
:10167900E53C2406F88607A83C08088602A83C0829
:10168900EFC39AF6A83C0886047D007E007F00A877
:101699003C0808EC26FCED0836FDEE0836FEEF089E
:1016A90036FF787EA60408A60508A60608A607A898
:1016B9003C0886067F00E53C24FBF8E6C0E008E626
:1016C900C0E008E6C0E0C006C007E53C240CF8E627
:1016D900C0E008E6C0E0E53C240EF886820886836F
:1016E9000886F008E6120747E58124F9F581A83C48
:1016F900088682853C81D03C22C03CE581F53C24AA
:1017090008F58112131CE582600B901F2775F08084
:101719001201848042AF3C0F8F047D007E40C007D8
:10172900C004C005C006758208121499AE821581DD
:1017390015811581D0077D00C3ED9E5017ED2FF956
:101749008782C007C006C0051200FED005D006D0AA
:10175900070D80E4EE70C1853C81D03C229015557F
:1017690074AAF0900AAAF4F09015557480F074AA3E
:10177900F0900AAAF4F09015557420F0758244127D
:1017890000FE752B0022752B017582450200FE12A1
:1017990000EAE58260F91200F5AE827F00C007C059
:1017A900061200F5AD82D006D0077C00ED4207ECA9
:1017B9004206C007C0061200F5AD82D006D007E583
:1017C9002B601190155574AAF0900AAAF4F090159F
:1017D9005574A0F08F828E83EDF07582570200FE5A
:1017E9001200EAE58260F91200F5AE827F00C007B7
:1017F900C0061200F5AD82D006D0077C00ED420785
:10180900EC42068F828E83E0F5820200FE1200EA26
:10181900E58260051200F580F41200EAE58260F9BC
:101829001200F5AF82BF4402803ABF4502803EBF35
:101839005202801EBF5602800ABF5702801DBF5840
:10184900388033901BE875F080C007120184D007F7
:101859008027C0071217E9D007801EC00712179802
:10186900D0078015C007121766D007800CC0071271
:10187900178FD00780035390EF8F82227F00C00714
:10188900120C17E582D007600D901F3875F080C0E3
:1018990007120184D007C007120CF5AE82D007EEFB
:1018A90070030219F17D00BD04004003021936C01E
:1018B90007901F4275F080C007C006C00512018459
:1018C900D005C005E4C0E08D821201B6158175828C
:1018D9003E1200FED005D006D0078DF005F07B0141
:1018E9007C008006EB2BFBEC33FCD5F0F78E027FF6
:1018F90000EA5203EF5204D007EB4C6017901F49DE
:1019090075F080C007C006C005120184D005D00655
:10191900D0078015901F4F75F080C007C006C0051D
:10192900120184D005D006D0070D0218B08E057EAD
:1019390000ED24FFFBEE34FFFCED5203EE5204EB05
:101949004C7031FCFBBB04005042C0048BF005F025
:101959007A017C008006EA2AFAEC33FCD5F0F7ED2F
:101969005202EE5204EA4CD00460048C07801D0B2D
:101979008B0480D1901F5775F080C006C0051201F5
:10198900841203C4AC82D005D0068C07BF04005072
:10199900438FF005F07B017C008006EB2BFBEC33D9
:1019A900FCD5F0F7EB5205EC5206ED4E6026901F80
:1019B9006475F080C007120184D007C007E4C0E055
:1019C9008F821201B6158175820A1200FED0078F27
:1019D90082020E50901F7375F080120184901BF5DE
:1019E90075F08012018480FE901F7E75F0801201CF
:1019F90084901BF575F08012018480FE1212E79025
:101A09001F8D75F0801201847F00BFFF005058C000
:101A1900071212F9AE82D007BEFF02804AEE704467
:101A2900787C8606C0077401C0E08E821201B61563
:101A3900817582091200FE7582091200FED0077EA7
:101A490000BE0B005014EE246AF98782C007C00655
:101A59001200FED006D0070E80E775820AC0071271
:101A690000FED0070F80A3901F9B75F080120184A0
:101A79001203C47E008E830212C67F00C0071200C3
:101A8900DB12048A1206C3D007C0071200EAE582F6
:101A9900D0076009C0071200F5D00780EC7D007EF1
:101AA90000C3ED94E8EE94FD502BC007C006C005B5
:101AB9001200EAE582D005D006D00760071200F5CA
:101AC900AF8280117C00BC030050030C80F80DBD6F
:101AD90000CF0E80CCBF5610901FA975F08012015F
:101AE90084121816E58270F9121885901FB775F0DF
:101AF9008012131CE5827011901FB775F0801201D6
:101B09008475820A1200FE8003121A05787E860601
:101B1900088607C007C006742CC0E07400C0E074D2
:101B290040C0E0758210121499AD82158115811596
:101B390081D006D007ED7003021BC87D00BD1000DF
:101B49005012ED2EF582E43FF583ED242CF9E7FCE4
:101B5900F00D80E97D00BD10005024ED242CF9879B
:101B690004ED2EF582E43FF583E0FBECB50302803A
:101B79000B901FBE75F08012018480FE0D80D7780E
:101B89007E86040886050886060886078C828D836A
:101B99008EF0EF1202CA75822F1200FE7878860441
:101BA9000886050886060886078C828D838EF0EFE5
:101BB9001202CA901FCB75F080120184021B1553C3
:041BC90090EF80FE1B
:101E8D004E756D6265722868657829203C20005674
:101E9D0042523A2073746172742C6270732C737099
:101EAD00632C7265736572766564536563746F72C6
:101EBD00732C6E6661742C6E726F6F74652C7370FB
:101ECD00662C6661745F73746172742C726F6F74BB
:101EDD00655F73746172742C646174615F73746196
:101EED0072740A000A524F4F545F454E5452595F57
:101EFD00494E4445583A000A46494C453A20000A95
:101F0D0053544152543A20000A53495A453A20003D
:0A1F1D000A415454523A2030780073
:101BCD006E6279746573206D757374206265207013
:0B1BDD006F776572206F6620320A00EF
:101F270046494C45204E4F5420464F554E440A2EA5
:011F370000A9
:101BE8004953413A53303A383035320A0048414C6B
:031BF80054210075
:101F3800424144204D4252210A000A50746E2E201C
:101F480000464154313600556E6B6E6F776E005304
:101F58006C63742050746E2E203E0A000A50746E12
:101F68002E204D6F756E7465643A000A42616420D4
:101F780050746E2E0A004E6F204641543136205060
:101F8800746E2E0A00494E444558090946494C4585
:101F98000A0A00536C637420696E646578203E0AEF
:101FA800004953413A4653303A383035320A0046F0
:101FB800572E42494E000A56657269662E206661A0
:051FC800696C000D0032
:101BFB007A10E4FBFCE58225E0F582E58333F5837F
:101C0B00EB33FBEC33FCEB953DF5F0EC953E4006EE
:101C1B00FCABF0438201DADD22F9E53D453E453F61
:101C2B00454060777800C308E54020E73BE53D255C
:101C3B00E0F53DE53E33F53EE53F33F53FE540331B
:101C4B00F540E582953DE583953EE5F0953FE995B9
:101C5B004050D4C3E54013F540E53F13F53FE53E57
:101C6B0013F53EE53D13F53DE582953DFCE583958A
:101C7B003EFDE5F0953FFEE995404007F98EF08D6E
:101C8B00838C82C3E54013F540E53F13F53FE53EFA
:101C9B0013F53EE53D13F53DD8CEE922FB7A20E462
:101CAB00FCFDFEFFE5822582F582E58333F583E5B6
:101CBB00F033F5F0EB33FB4017DAE98042E5822590
:101CCB0082F582E58333F583E5F033F5F0EB33FBF7
:101CDB00EC33FCED33FDEE33FEEF33FFEC953DEDD6
:101CEB00953EEE953FEF95404013EC953DFCED9501
:101CFB003EFDEE953FFEEF9540FF438201DABEEBD2
:011D0B0022B5
:06003500E478FFF6D8FD9F
:100013007900E94400601B7A00901FCD780175A038
:1000230000E493F2A308B8000205A0D9F4DAF2754C
:02003300A0FF2C
:101D0C0020F71130F6138883A88220F509F6A883F2
:101D1C007583002280FEF280F5F022E582853DF08D
:101D2C00A4C582C0F0853EF0A4D0F025F0C5838513
:101D3C003DF0A42583F58322E53D453E60467A01BE
:101D4C00E53D25E0F53DE53E334012F53EE5829557
:101D5C003DE583953E40030A80E6C3E53E13F53E20
:101D6C00E53D13F53DC3E582953DF5F0E583953EE4
:101D7C004005F58385F082C3E53E13F53EE53D1342
:101D8C00F53DDAE122AAF0FBE582853DF0A4FCAD3D
:101D9C00F0E583853DF0A42DFDE435F0FEE582856C
:101DAC003EF0A42DFDE5F03EFEE433FFEA853DF068
:101DBC00A42EFEE5F03FFFE583853EF0A42EFEE564
:101DCC00F03FFFE582853FF0A42EFEE5F03FFFEBF0
:101DDC00853DF0A42FFFEA853EF0A42FFFE5838517
:101DEC003FF0A42FFFE5828540F0A42F8EF08D8369
:031DFC008C8222B4
:10003B007800E84400600A790175A000E4F309D860
:10004B00FC7800E84400600C7900900001E4F0A318
:04005B00D8FCD9FAFA
:0D0006007581C1121E89E5826003020003AE
:101DFF0020F71430F6148883A88220F507E6A8830D
:101E0F0075830022E280F7E49322E022C2D5E583B6
:101E1F0030E70DD2D5E4C39582F582E49583F5833F
:101E2F00E53E30E70BE4C3953DF53DE4953EF53EC9
:101E3F00121D4430D50BE4C39582F582E49583F5EA
:101E4F008322C2D5E58330E70DD2D5E4C39582F561
:101E5F0082E49583F583E53E30E70DB2D5E4C39573
:101E6F003DF53DE4953EF53E121BFB30D50BE4C32B
:0E1E7F009582F582E49583F583227582002218
:00000001FF
