:03000000020006F5
:0A005F00752B01786976FF0200039B
:03000300021AE2FC
:20006900AF82BF3000400DEF24C640088F06EE24D0F58222BF4100400DEF24B940088F06E3
:2000890074C92EF58222BF6100400BEF2499400674A92FF5822275820022120069E582C452
:2000A90054F0FF850882C007120069AE82D007EE2FF58222E582FF24F0500475825822EFB8
:2000C90024F640088F0674302EF5822274372FF58222758920758DF3759850438780D28E28
:2000E90022209804758200227582012210980280FB8599822285829910990280FB22AD82E8
:20010900AE83AFF07C00C3EC95095029EC2DF9E43EFA8F0389828A838BF0121D20F582C0EB
:2001290007C006C005C0041200FED004D005D006D0070C80D122AD82AE83AFF07C00C3EC51
:20014900950A5036EC2DF9E43EFA8F03C007C006C005C004C003C002C0011200F5A882D054
:2001690001D002D003D004D005D006D00789828A838BF0E8121C2D0C80C422AD82AE83AF23
:20018900F08D828E838FF0121D20FCA3AD82AE838C82C007C006C0051200FED005D006D08E
:2001A900078D828E838FF0121D2070D522C03C85813CAF82E53C24FDF8E670328F05FE75A2
:2001C9003D108E3E8D828E83C006C005121D72AB82D005D00653050F8B82C0051200BD12BF
:2001E90000FED0058D821200BD1200FE807BE53C24FDF8B601737E00753D648E3E8F828ED7
:2002090083C007C006121D72AC82D006D007753D64753E008F828E83C007C006C004121DDE
:200229003C753D0A753E00121D72AB82D004D006D007753D0A753E008F828E83C004C003A3
:20024900121D3CAE82D003D00474302CF582C006C0031200FED00374302BF5821200FED07A
:200269000674302EF5821200FED03C22C03C85813CAD82AE83AFF07C00E53C24FDF8C3EC46
:2002890096503B8D828E838FF0121D20FBA3AD82AE83C007C006C005C004E53C24FCF8E613
:2002A900C0E08B821201B61581E53C24FBF886821200FED004D005D006D0070C80BBD03C30
:2002C90022C03C85813CC082C083C0F0C0E0E5812406F581E53C2406F87601E53C2405F8DE
:2002E9007608A83C08E53C2407F9E6F70809E6F70809E6F70809E6F77B01E53C2405F8C31E
:20030900EB96503A753D0AE4F53EF53FF540E53C2407F886820886830886F008E6C00312EF
:200329001BC8AC82AD83AEF0FFD003E53C2407F8A60408A60508A60608A6070B80BCE53C91
:200349002406F8E66030753D0AE4F53EF53FF540E53C2407F886820886830886F008E612E5
:200369001B45AA82AB83AEF0FFEA4B4E4F6007E53C2406F87600E53C2406F8E67026753DBA
:200389000AE4F53EF53FF540E53C2407F886820886830886F008E6121B45AC8274302CF59C
:2003A900821200FEE53C2405F816E53C2405F8E660030202EB853C81D03C221200EAE582FD
:2003C90060051200F580F4901DAE75F0801201841200F5AF82C0071200FE1200F5AE82C057
:2003E900061200FE75820A1200FED006D0078E088F820200A3C03C85813CC082C083C0F061
:200409007C00C0041200EAE582D0046009C0041200F5D00480EC7B00C004C0031200F5AA35
:2004290082C0021200FED002D003D004BA0A19A83C08EC26FDE40836FE0886078D828E8339
:200449008FF0E4121C2D8031A83C08EB26FDE40836FE0886078D828E838FF0EA121C2DE5AC
:200469003C24FDF8E6B5030C8D828E838FF0E4121C2D80050B8B04809F8C82853C81D03CFC
:2004890022AE82AF837C007D007A007B00C3EA9EEB9F501F8C008D01C3E89478E9940050FF
:2004A9000708B800F30980F0880489050ABA00DD0B80DA224390044390024390085390FE56
:2004C90022AF827E005390FEE53D60035390F77D00EF30E70543900280035390FD8F04ECC3
:2004E9002CFF8E04EC2CFE439001E59030E2034306015390FE0DBD080040D6E53D600343E7
:2005090090088E8222AD82AE83AFF0E50C60035390F77C00C3EC950B502DEC2DF9E43EFA65
:200529008F0389828A838BF0121D20F9753D008982C007C006C005C0041204CAD004D005E9
:20054900D006D0070C80CDE50C6003439008227F00753D007582FFC0071204CAAE82D00766
:20056900BEFF04758200220FBFFE0040E4758201224390087F00BF0A005010753D00758262
:20058900FFC0071204CAD0070F80EB22AF827EFF5390F7C007C006120558D006D007744054
:2005A9004FF582753D00C007C0061204CAD006D007851082753D00C007C0061204CAD00694
:2005C900D007850F82753D00C007C0061204CAD006D007850E82753D00C007C0061204CA25
:2005E900D006D007850D82753D00C007C0061204CAD006D007EF70047E958005BF08027E23
:2006090087753D008E82C0071204CAD0077E00753D007582FFC007C0061204CAAD82D00672
:20062900D007ED30E70A8E040EBC19E37582FE22E4BF080104FE7008BF3A0280030206C2EF
:20064900EE60337E00BE03005014753D007582FFC006C0051204CAD005D0060E80E7753D88
:20066900007582FFC0051204CAAE82D005BEAA02803A7582FF22BF3A33753D007582FFC001
:20068900051204CAAF82D005BFC00280047582FF227F00BF03005014753D007582FFC00735
:2006A900C0051204CAD005D0070F80E7753D007582FFC0051204CAD0058D8222AF82E4F50D
:2006C9000DF50EF50FF510758237C007120595AE82D007BE010280047582FF2285110D85CB
:2006E900120E85130F8514108F8202059512057A7F00E4F50DF50EF50FF510758200C00714
:20070900120595AE82D007BE0102800A8F060FBE19E07582FE22750DAA750E01E4F50FF5D3
:2007290010758208120595AF82BF010280047582FF227F00E4F511F512F51375144075822E
:2007490029C0071206C5E582D007600A8F060FBE19E27582FE22E4F50DF50EF50FF5107540
:20076900823A120595E58260047582FF2275820022C03C85813CAC82AD83AEF0FFE53C248E
:20078900FAF8E608467005F582020893E53C24FAF8E53C24FCF9E726FA09E70836FBC3E459
:2007A9009A74029B50067582010208935390F78C0D8D0E8E0F8F10758211120595E58260D5
:2007C900067582FF0208937F00753D007582FFC0071204CAAE82D007BEFF02800BBEFE029A
:2007E90080127582FD0208938F060FBEFFDB7582FE020893E53C24FCF8E53C24FAF9E72681
:20080900FE09E70836FF7C007D0074FE2D4063753D007582FFC007C006C005C0041204CACB
:20082900AB82D004D005D006D007E53C24FCF8C3EC96ED08964034EC9EED9F502EC006C095
:2008490007E53C24FCF8ECC396FAED0896FFE53C24F7F8EA26FAEF0836FF0886068A828FED
:20086900838EF0EB121C2DD007D0060CBC009B0D8098753D007582FF1204CA753D007582C2
:20088900FF1204CA439008758200D03C22AC82AD83AEF0FFC015C016C017E4C0E07402C039
:2008A900E0E4C0E0C0E08C828D838EF0EF12077AE58124F9F58122AD82AE83AFF074012D51
:2008C900FAE43EFB8F048A828B838CF0121D20FC7A008D828E838FF0121D207F004AF582DC
:2008E900EF4CF58322C03C85813CC082C083C0F0E5812409F581E4FAFBFCFFE53C240CF881
:200909007600E53C240CF8B60400506FE53C2408F8080808A60418A60318A602187600E59B
:200929003C240CF886057E007403C39DFDE49EFEA83C08ED26FFEE0836FE0886058F828E93
:20094900838DF0121D20FEE53C2404F8A606087600087600087600E53C2408F8E53C24044C
:20096900F9E746FA09E70846FB09E70846FC09E70846FFE53C240CF80680878A828B838CA2
:20098900F0EF853C81D03C22AD82AE83AFF07C00EC2DF9E43EFA8F0389828A838BF0121D02
:2009A90020FBEC253DF8E4353EF9AA3F888289838AF0121D20F8EBB500028004758201227D
:2009C900EB7003F582220C80C7AD82AE83AFF07C00ECB5400475820022EC2DF9E43EFA8F8E
:2009E9000389828A838BF0121D20FBEC253DF8E4353EF9AA3F888289838AF0121D20F8EBCD
:200A0900B50002800475820122EB7003F582220C80BFAD82AE83AFF07C007B00BBFF005036
:200A29001BEB2DF8E43EF98F02888289838AF0121D2070038C82220B8B0480E07582FF2242
:200A4900AD82AE83AFF0740B2DFAE43EFB8F048A828B838CF0121D20FC30E1047582012228
:200A6900EC30E20475820222EC30E30475820322740C2DFAE43EFB8F048A828B838CF01232
:200A89001D20FAA3121D204A70047582FF22740E2DFDE43EFE8D828E838FF0121D20FDA3F4
:200AA900121D20FEA3121D20FFA3121D20FCED4E4F4C70047582FE2275820022AD82AE8327
:200AC900AFF07C00BCFF00502FEC2DF9E43EFA8F0389828A838BF0121D20F8700122B86172
:200AE900004012E82485400DE824E0F889828A838BF0121C2D0C80CC2285821B85831C85A6
:200B0900F01D120AC57C00BC0B005018EC2518F9E43519FAAB1A89828A838BF07420121CCB
:200B29002D0C80E3740B2518FAE43519FBAC1A8A828B838CF0E4121C2D7C007B00BB081DBB
:200B4900EB251BF8E4351CF9AA1D888289838AF0121D20F8B82E02800475820122EB251BEC
:200B6900F8E4351CF9AA1D888289838AF0121D20FA7003F58222BA2E02801CEB2518F8E410
:200B89003519F9AF1A888289838FF0EA121C2D0B8B04BB090040A6751E0074FC251E500385
:200BA900020C467403B51E2C8C057E00AA1E7B00EA2DFDEB3EFE0DBD00010EED251BFDEEE4
:200BC900351CFEAB1D8D828E838BF0121D206004758202228C057E00AA1E7B00EA2DF8EB40
:200BE9003EF908B8000109E8251BF8E9351CF9AF1D888289838FF0121D207003F582227468
:200C0900082AF9E43BFFE92518F9EF3519F8AF1AEA2DFDEB3EFE0DBD00010EED251BFDEE39
:200C2900351CFEAB1D8D828E838BF0121D20FD898288838FF0121C2D051E020BA3758203F0
:200C490022C03C85813C05810581A93C0989057E007F40C001C005C006C0077402C0E0E459
:200C6900C0E074FEC0E0F4C0E0900000E4F5F012077AE58124F9F581D0018707BF550B09B9
:200C89008707BFAA057582008003758201853C81D03C22AF828F05E4CDC4CD6DCD54F0CD1B
:200CA9006DFE74BE2DFD74013EFEEF24FB5004758201227482C0E07400C0E07440C0E074C5
:200CC90010C0E0E4C0E0C005C006900000E4F5F012077AE58124F9F581788686077841A67D
:200CE9000790008A75F0401208EEAC82AD83AEF0FF7842A60408A60508A60608A607900012
:200D09008E75F0401208EEAC82AD83AEF0FF7846A60408A60508A60608A607758200227F78
:200D2900007E00BE0400502B8E82C007C006120C9CD006D00778418605BD06148E058DF0C0
:200D490005F07401800225E0D5F0FBFD8F044CFF0E80D08F8222901DCB75F0801201847801
:200D69004A86040886050886060886078C828D838EF0EF1202CA75822C1200FE78508606EA
:200D89000886077D007C008E828F838DF0EC1202CA75822C1200FE785286077E007D007C52
:200DA900008F828E838DF0EC1202CA75822C1200FE784E86060886077D007C008E828F838C
:200DC9008DF0EC1202CA75822C1200FE785386060886077D007C008E828F838DF0EC12020C
:200DE900CA75822C1200FE785786060886077D007C008E828F838DF0EC1202CA75822C1266
:200E090000FE785586060886077D007C008E828F838DF0EC1202CA75822C1200FE785D86ED
:200E2900040886050886060886078C828D838EF0EF1202CA75822C1200FE7861860408865C
:200E4900050886060886078C828D838EF0EF1202CA75822C1200FE78658604088605088637
:200E6900060886078C828D838EF0EF1202CA75822C1200FE75820A0200FEAF827869E6B584
:200E89000704758200227869A6078F82120C9CE58260047582012278428604088605088682
:200EA900060886077492C0E07400C0E07440C0E07410C0E0E4C0E0C0E0C0E08C828D838EEC
:200EC900F0EF12077AE58124F9F58178428604088605088606088607784AA60408A6050877
:200EE900A60608A60790009D75F0401208C0E5828583F07850F608A6F0789F86077852A60D
:200F0900079000A075F0401208C0E5828583F0784EF608A6F07842860408860508860608E6
:200F290086077492C0E07400C0E07440C0E07410C0E0E4C0E07410C0E0E4C0E08C828D839F
:200F49008EF0EF12077AE58124F9F58190009275F0401208C0E5828583F07853F608A6F030
:200F690090009375F0401208C0E5828583F07857F608A6F090009875F0401208C0AE82AF7E
:200F8900837855A60608A607785086040886058C1F8D20752100752200785286058D3D7599
:200FA9003E00753F00754000851F828520838521F0E522C007C006121CB2AA82AB83ACF033
:200FC900FDD006D0077859A60208A60308A60408A605784A861F08862008862108862278E3
:200FE9004E8604088605E4FBFAEC251FF51FED3520F520EB3521F521EA3522F522785DA6DF
:201009001F08A62008A62108A622785386820886838E3D8F3E121C48AE82AF838E048F05C1
:20102900E4FEFFEC251FF51FED3520F520EE3521F521EF3522F5227861A61F08A62008A65A
:201049002108A622785786020886038A82EBC42354E0C582C423C5826582C58254E0C5827E
:201069006582F5837850863D08863E121B1CAA82AB83E4FEFFEA251FFAEB3520FBEE352186
:20108900FEEF3522FF7865A60208A60308A60608A60775820022120E83E5826004758201E6
:2010A9002278508606088607BE0005BF020280047582022275820022901E2075F080120118
:2010C90084787C86060886077D007C008E828F838DF0EC1202CA901E3375F0801201847F30
:2010E90000BF08005010EF246AF98782C0071200FED0070F80EB7F00BF03005010EF2472F3
:20110900F98782C0071200FED0070F80EB901E3B75F080120184787686060886077D007C2F
:20112900008E828F838DF0EC1202CA901E4475F080120184787886040886050886060886A0
:20114900078C828D838EF0EF1202CA901E4C75F08012018478758682E4C0E01201B61581C8
:2011690075820A0200FE85822385832478578604088605C3E5239CE5249D400475820122B8
:2011890078698682120E8378618625088626088627088628AE23E524C42354E0CEC423CE9F
:2011A9006ECE54E0CE6EFF7850862908862A85293D852A3E8E828F83C007C006121B1CAAD2
:2011C90082AB83D006D007E4FCFDEA2525FAEB3526FBEC3527FCED3528FD85293D852A3EFA
:2011E9008E828F83C005C004C003C002121C65AE82AF83D002D003D004D00574A2C0E07449
:2012090000C0E07440C0E003C0E0E4C0E0C006C0078A828B838CF0ED12077AE58124F9F58F
:2012290081787CA62308A624787E76000876000876000876007F00BF0800500FEF246AF994
:20124900EF24A2F88606A7060F80EC7F08BF0B0050138F06EE24F82472F9EF24A2F8860609
:20126900A7060F80E878AD86077875A6079000BC75F0401208C0E5828583F07876F608A639
:20128900F09000BE75F0401208EEAC82AD83AEF0FF7878A60408A60508A60608A6077582B2
:2012A9000022786AE6FF70047582FF22BFE5047582E522BF2E0475822E2290006A75F04033
:2012C900120A49AF82BF0102801E90006A75F040120A49AF82BF0202800E90006A75F040EA
:2012E900120A49AF82BF03047582FE227582002212116FE58260047582FF221212ABAF82E4
:20130900BFFF047582FF22EF7003F5822275820122787C76FF0876FF7875860774044F7836
:2013290075F622787C86060886078E828F83A31212F9AF82BFFF047582FF22BF010280E3F0
:20134900EF70E0F58222C03CE581F53C240CF581AD82AE83AFF0AC3C0C8C18751900751ABF
:20136900408D828E838FF0C004120B02E582D00460057582018061C00412131AD0048C07BF
:2013890074082CFEC007C00612132CE582D006D00770428F3DF53E753F4075400890006A50
:2013A90075F040C007C0061209D2E582D006D00770D28E3DF53E753F40754003900072758E
:2013C900F040C007C0061209D2E582D006D00770B3F5828003758202853C81D03C22C03CC4
:2013E900E581F53C2409F581AE82AF83E53C2408F9A83C08A601087600087640EE2EFEEF2A
:2014090033FF785086050886048D3D8C3E8E828F83C007C006C005C004C001121C65AB825F
:20142900AA83D001D004D005D006D007E53C2404F8C001795DE7F609E708F609E708F609B5
:20144900E708F6D0018D3D8C3E8E828F83C003C002C001121B1CAE82AF83D001D002D003B0
:201469008E048F05E4FEFFE53C2404F8EC26FCED0836FDEE0836FEEF0836FFC001A83C08E2
:20148900E6C0E008E6C0E008E6C0E07402C0E0E4C0E0C003C0028C828D838EF0EF12077A64
:2014A900E58124F9F581D001E904F886078F067F0087057C00ED4FF582EC4EF583853C8124
:2014C900D03C22C03C85813CC082E5812410F581A83C08E67005F58202172FA83C088605C8
:2014E9007E00ED24FFFBEE34FFFCEB5205EC5206ED4E60067582FF02172FA83C0808797EED
:20150900E7F609E708F609E708F609E708F678788602088605088606088607A83C0808E60D
:20152900B5021108E6B5050C08E6B5060708E6B507028002800675820002172F7859863DEF
:2015490008863E08863F088640A83C080886820886830886F008E6121B45AB82AC83E53CB3
:20156900240AF8A60308A604A83C0808E6084608460846601FE53C240AF8E6084670157826
:201589007686820886831213E7E5828583F07876F608A6F078768607088606A83C0808794A
:2015A90065E7F609E708F609E708F609E708F6EF24FEF582EE34FFF583785286038B3D7565
:2015C9003E00121C48AB82AF838F057E007F00A83C0808EB26F6ED0836F6EE0836F6EF0829
:2015E90036F6785086020886048A3D8C3EE53C240AF88682088683C004C002121B1CAE82E4
:20160900AF83D002D0047D007B00A83C0808EE26FEEF0836FFED0836FDEB0836FBE53C242E
:201629000EF8A60608A60708A60508A6038A3D8C3EE53C240AF88682088683121C65C8E5A5
:201649003C240CC8A68208A683A83C0808797EE7F609E708F609E708F609E708F6A83C0876
:2016690086037D007E007F00A83C0808EB26FBED0836FDEE0836FEEF0836FFE53C2406F89D
:201689007978E7F609E708F609E708F609E708F6E53C2406F8C3E69B08E69D08E69E08E61D
:2016A9009F5014E53C2406F88607A83C08088602A83C08EFC39AF6A83C0886047D007E0033
:2016C9007F00A83C0808EC26FCED0836FDEE0836FEEF0836FF787EA60408A60508A60608F3
:2016E900A607A83C0886067F00E53C24FBF8E6C0E008E6C0E008E6C0E0C006C007E53C2491
:201709000CF8E6C0E008E6C0E0E53C240EF886820886830886F008E612077AE58124F9F5CD
:2017290081A83C088682853C81D03C22C03CE581F53C2408F58112134FE582600B901E563C
:2017490075F0801201848042AF3C0F8F047D007E40C007C004C005C0067582081214CCAEC5
:2017690082158115811581D0077D00C3ED9E5017ED2FF98782C007C006C0051200FED005BE
:20178900D006D0070D80E4EE70C1853C81D03C22AE82AF837C007D00C3EC9EED9F50117B83
:2017A90000BBFF0050030B80F80CBC00EB0D80E82290155574AAF0900AAAF4F090155574A8
:2017C90080F074AAF0900AAAF4F09015557420F07582441200FE752B0022752B01758245F2
:2017E9000200FE1200EAE58260F91200F5AE827F00C007C0061200F5AD82D006D0077C0082
:20180900ED4207EC4206C007C0061200F5AD82D006D007E52B601190155574AAF0900AAA18
:20182900F4F090155574A0F08F828E83EDF07582570200FE1200EAE58260F91200F5AE827D
:201849007F00C007C0061200F5AD82D006D0077C00ED4207EC42068F828E83E0F58202002F
:20186900FE1200EAE58260051200F580F41200EAE58260F91200F5AF82BF44028023BF457E
:20188900028021BF52028013BF56028005BF5717800C901E6775F08002018402183D0217B0
:2018A900EC0217BA0217E3227F007E7FEE14FE70FB0FBF7F0040F322120C4AE582600990F1
:2018C9001E8475F080120184120D28E582FFFE7003021A477F00EE24FFFCEF34FFFDEE5275
:2018E90004EF5205EC4D7068FDFCBC04004001228CF005F07A017B008006EA2AFAEB33FB54
:20190900D5F0F7EE5202EF5203EA4B603E8D82C005120E83901E9875F080120184D005C0DB
:2019290005E4C0E08D821201B61581D0058D8212109FE582700122901EAB75F08012018433
:20194900901B1175F08012018480FE0C8C05809A7D00BD04005075901EBF75F080C007C035
:2019690006C005120184D005C005E4C0E08D821201B6158175823E1200FED005D006D007A9
:201989008DF005F07B017C008006EB2BFBEC33FCD5F0F7EE5203EF5204EB4C6017901ECAB8
:2019A90075F080C007C006C005120184D005D006D0078015901ED175F080C007C006C00583
:2019C900120184D005D006D0070D8086901EDA75F080C007C0061201841203C4AD82D00663
:2019E900D007BD040050438DF005F07B017C008006EB2BFBEC33FCD5F0F7EB5206EC520753
:201A0900EE4F6026901E9875F080C005120184D005C005E4C0E08D821201B6158175820AE6
:201A29001200FED0058D82020E83901EF575F080120184901B1175F08012018480FE901F92
:201A49000975F080120184901B1175F08012018480FE12131A901F1E75F0801201847F003B
:201A6900BFFF005058C00712132CAE82D007BEFF02804AEE7044787C8606C0077401C0E051
:201A89008E821201B615817582091200FE7582091200FED0077E00BE0B005014EE246AF9B7
:201AA9008782C007C0061200FED006D0070E80E775820AC0071200FED0070F80A3901F3194
:201AC90075F0801201841203C47E008E830212F91200DB1204BD0206F6121AD91200EAE568
:0D1AE9008260051200F580F41200F580FB0C
:201DAE004E756D626572284845582C20656720464520666F7220323534293A20005642524D
:201DCE003A2073746172742C6270732C7370632C7265736572766564536563746F72732CEF
:201DEE006E6661742C6E726F6F74652C7370662C6661745F73746172742C726F6F74655F4C
:201E0E0073746172742C646174615F73746172740A000A524F4F545F454E5452595F494EF4
:201E2E004445583A000A46494C453A20000A53544152543A20000A53495A453A20000A4119
:081E4E005454523A2030780090
:1B1AF6006E6279746573206D75737420626520706F776572206F6620320A00D2
:201E560046494C45204E4F5420464F554E440A2E004953415F53455249414C5F4C4F4144EC
:0E1E760045525F56302E313A383035320A0070
:0B1B110048414C54494E472E2E2E0038
:201E84004552524F523A4E4F204D425220464F554E440A00506172746974696F6E204D6FA0
:201EA400756E7465643A00496E636F6D70617469626C652046415431360A00506172746981
:201EC40074696F6E2D0046415431360A00556E6B6E6F776E0A000A53656C656374204641C0
:201EE40054313620506172746974696F6E2D3E0A00496E76616C69642073656C6563746904
:201F04006F6E2E0A004E6F20464154313620506172746974696F6E2E0A00524F4F54455F8F
:201F2400494E4445580946494C450A0A0053656C65637420524F4F544520496E64657820A7
:201F44003E0A004953412D46415431362B53455249414C2D4C4F414445523A2056312E30DB
:041F64000A000D0062
:201B1C007A10E4FBFCE58225E0F582E58333F583EB33FBEC33FCEB953DF5F0EC953E400673
:091B3C00FCABF0438201DADD226A
:201B4500F9E53D453E453F454060777800C308E54020E73BE53D25E0F53DE53E33F53EE591
:201B65003F33F53FE54033F540E582953DE583953EE5F0953FE9954050D4C3E54013F540FE
:201B8500E53F13F53FE53E13F53EE53D13F53DE582953DFCE583953EFDE5F0953FFEE99573
:201BA500404007F98EF08D838C82C3E54013F540E53F13F53FE53E13F53EE53D13F53DD8C1
:031BC500CEE92244
:201BC800FB7A20E4FCFDFEFFE5822582F582E58333F583E5F033F5F0EB33FB4017DAE98056
:201BE80042E5822582F582E58333F583E5F033F5F0EB33FBEC33FCED33FDEE33FEEF33FF85
:201C0800EC953DED953EEE953FEF95404013EC953DFCED953EFDEE953FFEEF9540FF4382A6
:051C280001DABEEB2211
:06003500E478FFF6D8FD9F
:200013007900E94400601B7A00901F68780175A000E493F2A308B8000205A0D9F4DAF2750C
:02003300A0FF2C
:1B1C2D0020F71130F6138883A88220F509F6A8837583002280FEF280F5F022B6
:1D1C4800E582853DF0A4C582C0F0853EF0A4D0F025F0C583853DF0A42583F58322BF
:201C6500E53D453E60467A01E53D25E0F53DE53E334012F53EE582953DE583953E40030AA4
:201C850080E6C3E53E13F53EE53D13F53DC3E582953DF5F0E583953E4005F58385F082C3B3
:0D1CA500E53E13F53EE53D13F53DDAE12285
:201CB200AAF0FBE582853DF0A4FCADF0E583853DF0A42DFDE435F0FEE582853EF0A42DFD50
:201CD200E5F03EFEE433FFEA853DF0A42EFEE5F03FFFE583853EF0A42EFEE5F03FFFE582E7
:201CF200853FF0A42EFEE5F03FFFEB853DF0A42FFFEA853EF0A42FFFE583853FF0A42FFF6F
:0E1D1200E5828540F0A42F8EF08D838C822216
:20003B007800E84400600A790175A000E4F309D8FC7800E84400600C7900900001E4F0A3C3
:04005B00D8FCD9FAFA
:0D0006007581C1121DAAE58260030200038E
:1C1D200020F71430F6148883A88220F507E6A88375830022E280F7E49322E022D2
:201D3C00C2D5E58330E70DD2D5E4C39582F582E49583F583E53E30E70BE4C3953DF53DE440
:161D5C00953EF53E121C6530D50BE4C39582F582E49583F58322FD
:201D7200C2D5E58330E70DD2D5E4C39582F582E49583F583E53E30E70DB2D5E4C3953DF5A2
:181D92003DE4953EF53E121B1C30D50BE4C39582F582E49583F58322EE
:041DAA00758200221C
:00000001FF
