:03000000020006F5
:0A005F00752B01786976FF0200039B
:030003000219E0FF
:200069007E007F007CC87D001CBCFF011DEC4D70F70EBE00010FC3EE94FAEF940040E57EE3
:20008900007F007CC87D001CBCFF011DEC4D70F70EBE00010FC3EE94FAEF940040E55390DC
:2000A900EF7E007F007C647D001CBCFF011DEC4D70F70EBE00010FC3EE94FAEF940040E596
:2000C900439010225390EF22AF82BF3000400DEF24C640088F06EE24D0F58222BF41004040
:2000E9000DEF24B940088F0674C92EF58222BF6100400BEF2499400674A92FF58222758204
:2001090000221200D1E582C454F0FF850882C0071200D1AE82D007EE2FF58222E582FF2463
:20012900F0500475825822EF24F640088F0674302EF5822274372FF58222758920758DF32A
:20014900759850438780D28E22209804758200227582012210980280FB85998222858299F7
:2001690010990280FB22AD82AE83AFF07C00C3EC95095029EC2DF9E43EFA8F0389828A8315
:200189008BF0121D77F582C007C006C005C004120166D004D005D006D0070C80D122AD822B
:2001A900AE83AFF07C00C3EC950A5036EC2DF9E43EFA8F03C007C006C005C004C003C002BB
:2001C900C00112015DA882D001D002D003D004D005D006D00789828A838BF0E8121C840CB6
:2001E90080C422AD82AE83AFF08D828E838FF0121D77FCA3AD82AE838C82C007C006C005ED
:20020900120166D005D006D0078D828E838FF0121D7770D522C03C85813CAF82E53C24FD7D
:20022900F8E670328F05FE753D108E3E8D828E83C006C005121DC9AB82D005D00653050F33
:200249008B82C005120125120166D0058D82120125120166807BE53C24FDF8B601737E00A0
:20026900753D648E3E8F828E83C007C006121DC9AC82D006D007753D64753E008F828E8326
:20028900C007C006C004121D93753D0A753E00121DC9AB82D004D006D007753D0A753E00BE
:2002A9008F828E83C004C003121D93AE82D003D00474302CF582C006C003120166D0037463
:2002C900302BF582120166D00674302EF582120166D03C22C03C85813CAD82AE83AFF07C4B
:2002E90000E53C24FDF8C3EC96503B8D828E838FF0121D77FBA3AD82AE83C007C006C00556
:20030900C004E53C24FCF8E6C0E08B8212021E1581E53C24FBF88682120166D004D005D04A
:2003290006D0070C80BBD03C22C03C85813CC082C083C0F0C0E0E5812406F581E53C240AFA
:20034900F87601E53C2409F87608A83C08E53C2405F9E6F70809E6F70809E6F70809E6F78B
:200369007B01E53C2409F8C3EB96503A753D0AE4F53EF53FF540E53C2405F886820886834D
:200389000886F008E6C003121C1FAC82AD83AEF0FFD003E53C2405F8A60408A60508A606B7
:2003A90008A6070B80BCE53C240AF8E66030753D0AE4F53EF53FF540E53C2405F8868208ED
:2003C90086830886F008E6121B9CAA82AB83AEF0FFEA4B4E4F6007E53C240AF87600E53CC8
:2003E900240AF8E67026753D0AE4F53EF53FF540E53C2405F886820886830886F008E6123D
:200409001B9CAC8274302CF582120166E53C2409F816E53C2409F8E66003020353853C81A9
:20042900D03C22120152E582600512015D80F4901E0575F0801201EC12015DAF82C007125F
:20044900016612015DAE82C00612016675820A120166D006D0078E088F8202010BC03C85F0
:20046900813CC082C083C0F07C00C004120152E582D0046009C00412015DD00480EC7B0049
:20048900C004C00312015DAA82C002120166D002D003D004BA0A19A83C08EC26FDE4083682
:2004A900FE0886078D828E838FF0E4121C848031A83C08EB26FDE40836FE0886078D828E6E
:2004C900838FF0EA121C84E53C24FDF8E6B5030C8D828E838FF0E4121C8480050B8B0480BD
:2004E9009F8C82853C81D03C224390014390024390085390FB22AF827E005390FBE53D6043
:20050900035390F77D00EF30E70543900280035390FD8F04EC2CFF8E04EC2CFE439004E527
:200529009030E0034306015390FB0DBD080040D6E53D60034390088E8222AD82AE83AFF06E
:20054900E50C60035390F77C00C3EC950B502DEC2DF9E43EFA8F0389828A838BF0121D7723
:20056900F9753D008982C007C006C005C0041204FFD004D005D006D0070C80CDE50C60038E
:20058900439008227F00753D007582FFC0071204FFAE82D007BEFF04758200220FBFFE00A5
:2005A90040E4758201224390087F00BF0A005010753D007582FFC0071204FFD0070F80EB9C
:2005C90022AF827EFF5390F7C007C00612058DD006D00774404FF582753D00C007C00612BF
:2005E90004FFD006D007851082753D00C007C0061204FFD006D007850F82753D00C007C0DB
:20060900061204FFD006D007850E82753D00C007C0061204FFD006D007850D82753D00C06D
:2006290007C0061204FFD006D007EF70047E958005BF08027E87753D008E82C0071204FFBB
:20064900D0077E00753D007582FFC007C0061204FFAD82D006D007ED30E70A8E040EBC1993
:20066900E37582FE22E4BF080104FE7008BF3A0280030206F7EE60337E00BE03005014753B
:200689003D007582FFC006C0051204FFD005D0060E80E7753D007582FFC0051204FFAE82AC
:2006A900D005BEAA02803A7582FF22BF3A33753D007582FFC0051204FFAF82D005BFC002EB
:2006C90080047582FF227F00BF03005014753D007582FFC007C0051204FFD005D0070F804C
:2006E900E7753D007582FFC0051204FFD0058D8222AF82E4F50DF50EF50FF510758237C071
:20070900071205CAAE82D007BE010280047582FF2285110D85120E85130F8514108F8202D9
:2007290005CA1205AF7F00E4F50DF50EF50FF510758200C0071205CAAE82D007BE010280C3
:200749000A8F060FBE19E07582FE22750DAA750E01E4F50FF5107582081205CAAF82BF01A6
:200769000280047582FF227F00E4F511F512F513751440758229C0071206FAE582D00760FA
:200789000A8F060FBE19E27582FE22E4F50DF50EF50FF51075823A1205CAE582600475820C
:2007A900FF2275820022C03C85813CAC82AD83AEF0FFE53C24FAF8E608467005F58202085C
:2007C900C8E53C24FAF8E53C24FCF9E726FA09E70836FBC3E49A74029B50067582010208FD
:2007E900C85390F78C0D8D0E8E0F8F107582111205CAE58260067582FF0208C87F00753D2F
:20080900007582FFC0071204FFAE82D007BEFF02800BBEFE0280127582FD0208C88F060FF2
:20082900BEFFDB7582FE0208C8E53C24FCF8E53C24FAF9E726FE09E70836FF7C007D00743A
:20084900FE2D4063753D007582FFC007C006C005C0041204FFAB82D004D005D006D007E586
:200869003C24FCF8C3EC96ED08964034EC9EED9F502EC006C007E53C24FCF8ECC396FAED51
:200889000896FFE53C24F7F8EA26FAEF0836FF0886068A828F838EF0EB121C84D007D006CE
:2008A9000CBC009B0D8098753D007582FF1204FF753D007582FF1204FF439008758200D08B
:2008C9003C22AC82AD83AEF0FFC015C016C017E4C0E07402C0E0E4C0E0C0E08C828D838ECA
:2008E900F0EF1207AFE58124F9F58122AD82AE83AFF074012DFAE43EFB8F048A828B838C3C
:20090900F0121D77FC7A008D828E838FF0121D777F004AF582EF4CF58322C03C85813CC06A
:2009290082C083C0F0E5812409F581E4FAFBFCFFE53C240CF87600E53C240CF8B60400504A
:200949006FE53C2408F8080808A60418A60318A602187600E53C240CF886057E007403C37D
:200969009DFDE49EFEA83C08ED26FFEE0836FE0886058F828E838DF0121D77FEE53C24040D
:20098900F8A606087600087600087600E53C2408F8E53C2404F9E746FA09E70846FB09E759
:2009A9000846FC09E70846FFE53C240CF80680878A828B838CF0EF853C81D03C22AD82AE7F
:2009C90083AFF07C00EC2DF9E43EFA8F0389828A838BF0121D77FBEC253DF8E4353EF9AA3C
:2009E9003F888289838AF0121D77F8EBB50002800475820122EB7003F582220C80C7AD82C8
:200A0900AE83AFF07C00ECB5400475820022EC2DF9E43EFA8F0389828A838BF0121D77FB8F
:200A2900EC253DF8E4353EF9AA3F888289838AF0121D77F8EBB50002800475820122EB7065
:200A490003F582220C80BFAD82AE83AFF07C007B00BBFF00501BEB2DF8E43EF98F028882C5
:200A690089838AF0121D7770038C82220B8B0480E07582FF22AD82AE83AFF0740B2DFAE403
:200A89003EFB8F048A828B838CF0121D77FC30E10475820122EC30E20475820222EC30E3FE
:200AA9000475820322740C2DFAE43EFB8F048A828B838CF0121D77FAA3121D774A70047504
:200AC90082FF22740E2DFDE43EFE8D828E838FF0121D77FDA3121D77FEA3121D77FFA31218
:200AE9001D77FCED4E4F4C70047582FE2275820022AD82AE83AFF07C00BCFF00502FEC2D15
:200B0900F9E43EFA8F0389828A838BF0121D77F8700122B861004012E82485400DE824E02C
:200B2900F889828A838BF0121C840C80CC2285821B85831C85F01D120AFA7C00BC0B005074
:200B490018EC2518F9E43519FAAB1A89828A838BF07420121C840C80E3740B2518FAE4354A
:200B690019FBAC1A8A828B838CF0E4121C847C007B00BB081DEB251BF8E4351CF9AA1D88EF
:200B89008289838AF0121D77F8B82E02800475820122EB251BF8E4351CF9AA1D88828983F2
:200BA9008AF0121D77FA7003F58222BA2E02801CEB2518F8E43519F9AF1A888289838FF0D7
:200BC900EA121C840B8B04BB090040A6751E0074FC251E5003020C7B7403B51E2C8C057E85
:200BE90000AA1E7B00EA2DFDEB3EFE0DBD00010EED251BFDEE351CFEAB1D8D828E838BF0CB
:200C0900121D776004758202228C057E00AA1E7B00EA2DF8EB3EF908B8000109E8251BF839
:200C2900E9351CF9AF1D888289838FF0121D777003F5822274082AF9E43BFFE92518F9EF9A
:200C49003519F8AF1AEA2DFDEB3EFE0DBD00010EED251BFDEE351CFEAB1D8D828E838BF09E
:200C6900121D77FD898288838FF0121C84051E020BD875820322C03C85813C05810581A96A
:200C89003C0989057E007F40C001C005C006C0077402C0E0E4C0E074FEC0E0F4C0E0900058
:200CA90000E4F5F01207AFE58124F9F581D0018707BF550B098707BFAA057582008003752F
:200CC9008201853C81D03C22AF828F05E4CDC4CD6DCD54F0CD6DFE74BE2DFD74013EFEEF5F
:200CE90024FB5004758201227482C0E07400C0E07440C0E07410C0E0E4C0E0C005C006909D
:200D09000000E4F5F01207AFE58124F9F581788686077841A60790008A75F040120923ACA6
:200D290082AD83AEF0FF7842A60408A60508A60608A60790008E75F040120923AC82AD837C
:200D4900AEF0FF7846A60408A60508A60608A607758200227F007E00BE0400502B8E82C046
:200D690007C006120CD1D006D00778418605BD06148E058DF005F07401800225E0D5F0FB25
:200D8900FD8F044CFF0E80D08F8222AF827869E6B50704758200227869A6078F82120CD17F
:200DA900E582600475820122784286040886050886060886077492C0E07400C0E07440C017
:200DC900E07410C0E0E4C0E0C0E0C0E08C828D838EF0EF1207AFE58124F9F58178428604B2
:200DE900088605088606088607784AA60408A60508A60608A60790009D75F0401208F5E5E0
:200E0900828583F07850F608A6F0789F86077852A6079000A075F0401208F5E5828583F095
:200E2900784EF608A6F0784286040886050886060886077492C0E07400C0E07440C0E074CD
:200E490010C0E0E4C0E07410C0E0E4C0E08C828D838EF0EF1207AFE58124F9F5819000923F
:200E690075F0401208F5E5828583F07853F608A6F090009375F0401208F5E5828583F07849
:200E890057F608A6F090009875F0401208F5AE82AF837855A60608A607785086040886050D
:200EA9008C1F8D20752100752200785286058D3D753E00753F00754000851F828520838596
:200EC90021F0E522C007C006121D09AA82AB83ACF0FDD006D0077859A60208A60308A604B0
:200EE90008A605784A861F088620088621088622784E8604088605E4FBFAEC251FF51FEDD5
:200F09003520F520EB3521F521EA3522F522785DA61F08A62008A62108A6227853868208CD
:200F290086838E3D8F3E121C9FAE82AF838E048F05E4FEFFEC251FF51FED3520F520EE3513
:200F490021F521EF3522F5227861A61F08A62008A62108A622785786020886038A82EBC446
:200F69002354E0C582C423C5826582C58254E0C5826582F5837850863D08863E121B73AAF3
:200F890082AB83E4FEFFEA251FFAEB3520FBEE3521FEEF3522FF7865A60208A60308A606E3
:200FA90008A60775820022120D94E58260047582012278508606088607BE0005BF020280D3
:200FC900047582022275820022901E1475F0801201EC787C86060886077D007C008E828F7D
:200FE900838DF0EC120332901E2775F0801201EC7F00BF08005010EF246AF98782C00712FE
:201009000166D0070F80EB7F00BF03005010EF2472F98782C007120166D0070F80EB901EA8
:201029002F75F0801201EC787686060886077D007C008E828F838DF0EC120332901E38755F
:20104900F0801201EC787886040886050886060886078C828D838EF0EF120332901E4075AD
:20106900F0801201EC78758682E4C0E012021E158175820A020166858223858324785786A2
:2010890004088605C3E5239CE5249D40047582012278698682120D94786186250886260869
:2010A9008627088628AE23E524C42354E0CEC423CE6ECE54E0CE6EFF7850862908862A85ED
:2010C900293D852A3E8E828F83C007C006121B73AA82AB83D006D007E4FCFDEA2525FAEB68
:2010E9003526FBEC3527FCED3528FD85293D852A3E8E828F83C005C004C003C002121CBC14
:20110900AE82AF83D002D003D004D00574A2C0E07400C0E07440C0E003C0E0E4C0E0C0060B
:20112900C0078A828B838CF0ED1207AFE58124F9F581787CA62308A624787E760008760022
:201149000876000876007F00BF0800500FEF246AF9EF24A2F88606A7060F80EC7F08BF0BBD
:201169000050138F06EE24F82472F9EF24A2F88606A7060F80E878AD86077875A60790009C
:20118900BC75F0401208F5E5828583F07876F608A6F09000BE75F040120923AC82AD83AEB8
:2011A900F0FF7878A60408A60508A60608A60775820022786AE6FF70047582FF22BFE5046D
:2011C9007582E522BF2E0475822E2290006A75F040120A7EAF82BF0102801E90006A75F0A7
:2011E90040120A7EAF82BF0202800E90006A75F040120A7EAF82BF03047582FE227582004C
:2012090022121080E58260047582FF221211BCAF82BFFF047582FF22EF7003F58222758242
:201229000122787C76FF0876FF7875860774044F7875F622787C86060886078E828F83A37C
:2012490012120AAF82BFFF047582FF22BF010280E3EF70E0F58222C03CE581F53C240CF597
:2012690081AD82AE83AFF0AC3C0C8C18751900751A408D828E838FF0C004120B37E582D002
:201289000460057582018061C00412122BD0048C0774082CFEC007C00612123DE582D006B8
:2012A900D00770428F3DF53E753F4075400890006A75F040C007C006120A07E582D006D090
:2012C9000770D28E3DF53E753F4075400390007275F040C007C006120A07E582D006D007A7
:2012E90070B3F5828003758202853C81D03C22C03CE581F53C2409F581AE82AF83E53C2482
:2013090008F9A83C08A601087600087640EE2EFEEF33FF785086050886048D3D8C3E8E8230
:201329008F83C007C006C005C004C001121CBCAB82AA83D001D004D005D006D007E53C240B
:2013490004F8C001795DE7F609E708F609E708F609E708F6D0018D3D8C3E8E828F83C00300
:20136900C002C001121B73AE82AF83D001D002D0038E048F05E4FEFFE53C2404F8EC26FC13
:20138900ED0836FDEE0836FEEF0836FFC001A83C08E6C0E008E6C0E008E6C0E07402C0E061
:2013A900E4C0E0C003C0028C828D838EF0EF1207AFE58124F9F581D001E904F886078F06F7
:2013C9007F0087057C00ED4FF582EC4EF583853C81D03C22C03C85813CC082E5812410F599
:2013E90081A83C08E67005F582021640A83C0886057E00ED24FFFBEE34FFFCEB5205EC52B0
:2014090006ED4E60067582FF021640A83C0808797EE7F609E708F609E708F609E708F678C4
:20142900788602088605088606088607A83C0808E6B5021108E6B5050C08E6B5060708E6F3
:20144900B50702800280067582000216407859863D08863E08863F088640A83C0808868277
:201469000886830886F008E6121B9CAB82AC83E53C240AF8A60308A604A83C0808E60846F7
:2014890008460846601FE53C240AF8E608467015787686820886831212F8E5828583F0782E
:2014A90076F608A6F078768607088606A83C08087965E7F609E708F609E708F609E708F691
:2014C900EF24FEF582EE34FFF583785286038B3D753E00121C9FAB82AF838F057E007F0057
:2014E900A83C0808EB26F6ED0836F6EE0836F6EF0836F6785086020886048A3D8C3EE53CEE
:20150900240AF88682088683C004C002121B73AE82AF83D002D0047D007B00A83C0808EE7B
:2015290026FEEF0836FFED0836FDEB0836FBE53C240EF8A60608A60708A60508A6038A3D2F
:201549008C3EE53C240AF88682088683121CBCC8E53C240CC8A68208A683A83C0808797E49
:20156900E7F609E708F609E708F609E708F6A83C0886037D007E007F00A83C0808EB26FBCC
:20158900ED0836FDEE0836FEEF0836FFE53C2406F87978E7F609E708F609E708F609E708DF
:2015A900F6E53C2406F8C3E69B08E69D08E69E08E69F5014E53C2406F88607A83C08088653
:2015C90002A83C08EFC39AF6A83C0886047D007E007F00A83C0808EC26FCED0836FDEE08C2
:2015E90036FEEF0836FF787EA60408A60508A60608A607A83C0886067F00E53C24FBF8E6B1
:20160900C0E008E6C0E008E6C0E0C006C007E53C240CF8E6C0E008E6C0E0E53C240EF8864A
:20162900820886830886F008E61207AFE58124F9F581A83C088682853C81D03C22C03CE59C
:2016490081F53C2408F581121260E582600B901E4A75F0801201EC8042AF3C0F8F047D002F
:201669007E40C007C004C005C0067582081213DDAE82158115811581D0077D00C3ED9E50A8
:2016890017ED2FF98782C007C006C005120166D005D006D0070D80E4EE70C1853C81D03CE1
:2016A9002290155574AAF0900AAAF4F09015557480F074AAF0900AAAF4F09015557420F03D
:2016C900758244120166752B0022752B01758245020166120152E58260F912015DAE827F01
:2016E90000C007C00612015DAD82D006D0077C00ED4207EC4206C007C00612015DAD82D026
:2017090006D007E52B601190155574AAF0900AAAF4F090155574A0F08F828E83EDF075823E
:2017290057020166120152E58260F912015DAE827F00C007C00612015DAD82D006D0077C47
:2017490000ED4207EC42068F828E83E0F582020166120152E582600512015D80F4120152BA
:20176900E58260F912015DAF82BF4402803ABF4502803EBF5202801EBF5602800ABF570212
:20178900801DBF583C8033901B6075F080C0071201ECD007802BC00712172DD0078022C00F
:2017A900071216DCD0078019C0071216AAD0078010C0071216D3D0078007C007120069D073
:2017C900078F82227F00C007120C7FE582D007600D901E5B75F080C0071201ECD007C007E6
:2017E900120D5DAE82D007EE70030219397D00BD0400400302187EC007901E6575F080C010
:2018090007C006C0051201ECD005C005E4C0E08D8212021E158175823E120166D005D006E0
:20182900D0078DF005F07B017C008006EB2BFBEC33FCD5F0F78E027F00EA5203EF5204D08D
:2018490007EB4C6017901E6B75F080C007C006C0051201ECD005D006D0078015901E7275CF
:20186900F080C007C006C0051201ECD005D006D0070D0217F88E057E00ED24FFFBEE34FFC1
:20188900FCED5203EE5204EB4C7031FCFBBB04005042C0048BF005F07A017C008006EA2AD8
:2018A900FAEC33FCD5F0F7ED5202EE5204EA4CD00460048C07801D0B8B0480D1901E7B75A2
:2018C900F080C006C0051201EC12042CAC82D005D0068C07BF040050438FF005F07B017C95
:2018E900008006EB2BFBEC33FCD5F0F7EB5205EC5206ED4E6026901E8875F080C007120135
:20190900ECD007C007E4C0E08F8212021E158175820A120166D0078F82020D94901E987517
:20192900F0801201EC901B6D75F0801201EC80FE901EA375F0801201EC901B6D75F0801271
:2019490001EC80FE12122B901EB275F0801201EC7F00BFFF005058C00712123DAE82D0076C
:20196900BEFF02804AEE7044787C8606C0077401C0E08E8212021E15817582091201667511
:201989008209120166D0077E00BE0B005014EE246AF98782C007C006120166D006D0070E79
:2019A90080E775820AC007120166D0070F80A3901EC075F0801201EC12042C7E008E831238
:2019C900120AE582FF600D901ECF75F080C0071201ECD0078F82227F00C00712014312042B
:2019E900F212072B901EE175F0801201ECD007C007120152E582D0076009C00712015DD084
:201A09000780EC7D007E00C3ED94E8EE94FD502BC007C006C005120152E582D005D006D090
:201A290007600712015DAF8280117C00BC030050030C80F80DBD00CF0E80CCBF5610901E25
:201A4900F075F0801201EC12175AE58270F91217CD901EFE75F080121260E5827011901EB5
:201A6900FE75F0801201EC75820A120166800712194DE58270F9787E8606088607C007C094
:201A890006742CC0E07400C0E07440C0E07582101213DDAD82158115811581D006D007EDFB
:201AA900700C901F0575F0801201EC021B407D00BD10005012ED2EF582E43FF583ED242C96
:201AC900F9E7FCF00D80E97D00BD10005024ED242CF98704ED2EF582E43FF583E0FBECB593
:201AE9000302800B901F0D75F0801201EC80FE0D80D7787E8604088605088606088607ECA3
:201B0900543F6003021A7F8C828D838EF0EF12033275822F1201667878860408860508861F
:1C1B2900060886078C828D838EF0EF12033275820D120166021A7F12006980FE22
:201E05004E756D6265722868657829203C20000A524F4F545F454E5452595F494E4445582C
:201E25003A000A46494C453A20000A53544152543A20000A53495A453A20000A4154545209
:051E45003A2030780096
:1B1B45006E6279746573206D75737420626520706F776572206F6620320A0082
:111E4A0046494C45204E4F5420464F554E440A2E0082
:131B60004953413A53303A383035320A0048414C5421007B
:201E5B00424144204D4252210A0050746E2E200046415431360A00556E6B6E6F776E0A00AE
:201E7B00536C63742050746E2E203E0A000A0A50746E2E204D6F756E7465643A000A426172
:201E9B00642050746E2E0A004E6F2046415431362050746E2E0A000A494E444558090946B6
:201EBB00494C450A000A536C637420696E646578203E0A000A496E76616C696420456E74CB
:201EDB00727920210A000A5359414D50555445523A56300A004953413A4653303A3830355C
:1F1EFB00320A0046572E42494E000A3C52554E3E0A000A56657269662E206661696C0075
:201B73007A10E4FBFCE58225E0F582E58333F583EB33FBEC33FCEB953DF5F0EC953E40061C
:091B9300FCABF0438201DADD2213
:201B9C00F9E53D453E453F454060777800C308E54020E73BE53D25E0F53DE53E33F53EE53A
:201BBC003F33F53FE54033F540E582953DE583953EE5F0953FE9954050D4C3E54013F540A7
:201BDC00E53F13F53FE53E13F53EE53D13F53DE582953DFCE583953EFDE5F0953FFEE9951C
:201BFC00404007F98EF08D838C82C3E54013F540E53F13F53FE53E13F53EE53D13F53DD86A
:031C1C00CEE922EC
:201C1F00FB7A20E4FCFDFEFFE5822582F582E58333F583E5F033F5F0EB33FB4017DAE980FE
:201C3F0042E5822582F582E58333F583E5F033F5F0EB33FBEC33FCED33FDEE33FEEF33FF2D
:201C5F00EC953DED953EEE953FEF95404013EC953DFCED953EFDEE953FFEEF9540FF43824F
:051C7F0001DABEEB22BA
:06003500E478FFF6D8FD9F
:200013007900E94400601B7A00901F1A780175A000E493F2A308B8000205A0D9F4DAF2755A
:02003300A0FF2C
:1B1C840020F71130F6138883A88220F509F6A8837583002280FEF280F5F0225F
:1D1C9F00E582853DF0A4C582C0F0853EF0A4D0F025F0C583853DF0A42583F5832268
:201CBC00E53D453E60467A01E53D25E0F53DE53E334012F53EE582953DE583953E40030A4D
:201CDC0080E6C3E53E13F53EE53D13F53DC3E582953DF5F0E583953E4005F58385F082C35C
:0D1CFC00E53E13F53EE53D13F53DDAE1222E
:201D0900AAF0FBE582853DF0A4FCADF0E583853DF0A42DFDE435F0FEE582853EF0A42DFDF8
:201D2900E5F03EFEE433FFEA853DF0A42EFEE5F03FFFE583853EF0A42EFEE5F03FFFE5828F
:201D4900853FF0A42EFEE5F03FFFEB853DF0A42FFFEA853EF0A42FFFE583853FF0A42FFF17
:0E1D6900E5828540F0A42F8EF08D838C8222BF
:20003B007800E84400600A790175A000E4F309D8FC7800E84400600C7900900001E4F0A3C3
:04005B00D8FCD9FAFA
:0D0006007581C1121E01E582600302000336
:1C1D770020F71430F6148883A88220F507E6A88375830022E280F7E49322E0227B
:201D9300C2D5E58330E70DD2D5E4C39582F582E49583F583E53E30E70BE4C3953DF53DE4E9
:161DB300953EF53E121CBC30D50BE4C39582F582E49583F583224F
:201DC900C2D5E58330E70DD2D5E4C39582F582E49583F583E53E30E70DB2D5E4C3953DF54B
:181DE9003DE4953EF53E121B7330D50BE4C39582F582E49583F5832240
:041E010075820022C4
:00000001FF
