:020000040000FA
:100000003D0AF90C27000000E702030A000000087F
:100010000109E802080A000806060C0A320C28004A
:100020000109E802100A06060C0AFA0C2800010968
:10003000E802170A0606010800088605640C280075
:100040000109E802200AA604640C28000109E8025C
:10005000260A86040109060500088605640C2800A6
:100060000109E802300AA605640C28000109E8022B
:10007000360A8604010906050008CF0C0600BF0CED
:10008000020006052D090C09290009061D090907AA
:0E0090002D09FF0C2800080928000809430A62
:021FFE00EA0FE8
:00000001FF
