:020000040000FA
:10000000360AF90C27000000E702030A0000000886
:100010000109E802080A000806060C0A640C280018
:100020000109E802100A06060C0A0008A604640C7E
:1000300028000109E802190A8605640C2800010954
:10004000E8021F0A8604010906050008A605640CDB
:1000500028000109E802290A8605640C2800010924
:10006000E8022F0A8604010906050008CF0C0600E5
:10007000BF0C020026090C091609FF0C280008090C
:10008000FF0C280008090C092609FF0C28000809A4
:08009000FF0C280008093B0ADF
:021FFE00FA0FD8
:00000001FF
