:03000000020006F5
:06005F00750B0102000315
:03000300020542B1
:10006500AF82BF3000400DEF24C640088F06EE2456
:10007500D0F58222BF4100400DEF24B940088F061C
:1000850074C92EF58222BF6100400BEF249940060A
:1000950074A92FF5822275820022120065E582C4BB
:1000A50054F0FF850882C007120065AE82D007EEC6
:1000B5002FF58222E582FF24F0500475825822EF45
:1000C50024F640088F0674302EF5822274372FF5FA
:1000D5008222758920758DF3759850438780D28E5D
:1000E50022209804758200227582012210980280D0
:1000F500FB8599822285829910990280FB22AD8227
:10010500AE83AFF07C00C3EC95095029EC2DF9E4E2
:100115003EFA8F0389828A838BF01206F9F582C035
:1001250007C006C005C0041200FAD004D005D006E9
:10013500D0070C80D122AD82AE83AFF07C00C3EC3A
:10014500950A5036EC2DF9E43EFA8F03C007C00638
:10015500C005C004C003C002C0011200F1A882D0CE
:1001650001D002D003D004D005D006D00789828AF9
:10017500838BF0E81206680C80C422AD82AE83AF93
:10018500F08D828E838FF01206F9FCA3AD82AE83CB
:100195008C82C007C006C0051200FAD005D006D073
:1001A500078D828E838FF01206F970D522C00C85DB
:1001B500810CAF82E50C24FDF8E670328F05FE75E3
:1001C5000D108E0E8D828E83C006C00512074BABB7
:1001D50082D005D00653050F8B82C0051200B912D7
:1001E50000FAD0058D821200B91200FA807BE50C69
:1001F50024FDF8B601737E00750D648E0E8F828E18
:1002050083C007C00612074BAC82D006D007750D18
:1002150064750E008F828E83C007C006C004120766
:1002250015750D0A750E0012074BAB82D004D0066A
:10023500D007750D0A750E008F828E83C004C0032A
:10024500120715AE82D003D00474302CF582C00697
:10025500C0031200FAD00374302BF5821200FAD0D5
:100265000674302EF5821200FAD00C22C00C85815E
:100275000CAD82AE83AFF07C00E50C24FDF8C3EC39
:1002850096503B8D828E838FF01206F9FBA3AD82CB
:10029500AE83C007C006C005C004E50C24FCF8E623
:1002A500C0E08B821201B21581E50C24FBF8868231
:1002B5001200FAD004D005D006D0070C80BBD00CB4
:1002C50022C00C85810CC082C083C0F0C0E0E581EE
:1002D5002404F5817B08A80C088602088605088693
:1002E500060886077C01C3EC9B5043C003750D0AC5
:1002F500E4F50EF50FF5108A828D838EF0EFC004BC
:10030500C003120603C8E50C2405C8A68208A68307
:1003150008A6F008F6D003D004E50C2405F88602FB
:100325000886050886060886070CD00380B8750D73
:100335000AE4F50EF50FF5108A828D838EF0EFC075
:1003450003120580AC8274302CF5821200FAD003BA
:10035500DB84850C81D00C221200E6E58260051253
:1003650000F180F490078775F0801201801200F18A
:10037500AF82C0071200FA1200F1AE82C006120069
:10038500FA75820A1200FAD006D0078E088F82020B
:10039500009FC00C85810CC082C083C0F07C00C06A
:1003A500041200E6E582D0046009C0041200F1D011
:1003B5000480EC7B00C004C0031200F1AA82C002D5
:1003C5001200FAD002D003D004BA0A19A80C08EC1E
:1003D50026FDE40836FE0886078D828E838FF0E4BD
:1003E5001206688031A80C08EB26FDE40836FE08E5
:1003F50086078D828E838FF0EA120668E50C24FD50
:10040500F8E6B5030C8D828E838FF0E412066880C2
:10041500050B8B04809F8C82850C81D00C22901556
:100425005574AAF0900AAAF4F09015557480F074EA
:10043500AAF0900AAAF4F09015557420F07582443C
:100445001200FA750B0022750B017582450200FA40
:100455001200E6E58260F91200F1AE827F00C00766
:10046500C0061200F1AD82D006D0077C00ED420730
:10047500EC4206C007C0061200F1AD82D006D007D7
:10048500E50B601190155574AAF0900AAAF4F09046
:10049500155574A0F08F828E83EDF075825702009A
:1004A500FA1200E6E58260F91200F1AE827F00C023
:1004B50007C0061200F1AD82D006D0077C00ED42E0
:1004C50007EC42068F828E83E0F5820200FA120065
:1004D500E6E58260051200F180F41200E6E582602F
:1004E500F91200F1AF82BF4402803ABF4502803E57
:1004F500BF5202801EBF5602800ABF5702801DBF31
:100505005838803390057375F080C007120180D08C
:10051500078027C0071204A6D007801EC007120453
:1005250055D0078015C007120423D007800CC007DB
:1005350012044CD00780035390EF8F82221200D70C
:100545001204D380FB7E007F007CFF7D00EC24FF3E
:10055500FAED34FFFB8A048B05EA4B70F00EBE0002
:0E056500010FC3EE94FFEF6480948040DC220F
:100787004E756D62657220696E20486578202D2050
:10079700656728464520666F7220323534293A202E
:0107A7000051
:100573004953413A53303A383035320A00F9E50DE0
:10058300450E450F451060777800C308E51020E756
:100593003BE50D25E0F50DE50E33F50EE50F33F5DF
:1005A3000FE51033F510E582950DE583950EE5F023
:1005B300950FE9951050D4C3E51013F510E50F130B
:1005C300F50FE50E13F50EE50D13F50DE582950D0B
:1005D300FCE583950EFDE5F0950FFEE995104007C8
:1005E300F98EF08D838C82C3E51013F510E50F139C
:1005F300F50FE50E13F50EE50D13F50DD8CEE92233
:10060300FB7A20E4FCFDFEFFE5822582F582E5838B
:1006130033F583E5F033F5F0EB33FB4017DAE9808C
:1006230042E5822582F582E58333F583E5F033F5F0
:10063300F0EB33FBEC33FCED33FDEE33FEEF33FF36
:10064300EC950DED950EEE950FEF95104013EC958F
:100653000DFCED950EFDEE950FFEEF9510FF438219
:0506630001DABEEB22EC
:06003500E478FFF6D8FD9F
:100013007900E94400601B7A009007A8780175A075
:1000230000E493F2A308B8000205A0D9F4DAF2754C
:02003300A0FF2C
:1006680020F71130F6138883A88220F509F6A883AD
:100678007583002280FEF280F5F022E50D450E60BC
:10068800467A01E50D25E0F50DE50E334012F50E2D
:10069800E582950DE583950E40030A80E6C3E50ED5
:1006A80013F50EE50D13F50DC3E582950DF5F0E58F
:1006B80083950E4005F58385F082C3E50E13F50E8C
:0806C800E50D13F50DDAE12246
:10003B007800E84400600A790175A000E4F309D860
:10004B00FC7800E84400600C7900900001E4F0A318
:04005B00D8FCD9FAFA
:1006D0007A10E4FBFCE58225E0F582E58333F583BF
:1006E000EB33FBEC33FCEB950DF5F0EC950E40068F
:0906F000FCABF0438201DADD22CB
:0D000600758110120783E58260030200037C
:1006F90020F71430F6148883A88220F507E6A8832A
:1007090075830022E280F7E49322E022C2D5E583D3
:1007190030E70DD2D5E4C39582F582E49583F5835C
:10072900E50E30E70BE4C3950DF50DE4950EF50ED6
:1007390012068330D50BE4C39582F582E49583F5DF
:100749008322C2D5E58330E70DD2D5E4C39582F57E
:1007590082E49583F583E50E30E70DB2D5E4C395C0
:100769000DF50DE4950EF50E1206D030D50BE4C348
:0E0779009582F582E49583F583227582002235
:00000001FF
