:03000000020006F5
:07005F00786B76FF0200033D
:030003000218D709
:20006600AF82BF3000400DEF24C640088F06EE24D0F58222BF4100400DEF24B940088F06E6
:2000860074C92EF58222BF6100400BEF2499400674A92FF5822275820022120066E582C458
:2000A60054F0FF850882C007120066AE82D007EE2FF58222E582FF24F0500475825822EFBE
:2000C60024F640088F0674302EF5822274372FF58222758920758DF3759850438780D28E2B
:2000E60022209804758200227582012210980280FB8599822285829910990280FB22AD82EB
:20010600AE83AFF07C00C3EC95095029EC2DF9E43EFA8F0389828A838BF0121B6DF582C0A3
:2001260007C006C005C0041200FBD004D005D006D0070C80D122AD82AE83AFF07C00C3EC57
:20014600950A5036EC2DF9E43EFA8F03C007C006C005C004C003C002C0011200F2A882D05A
:2001660001D002D003D004D005D006D00789828A838BF0E8121A7A0C80C422AD82AE83AFDB
:20018600F08D828E838FF0121B6DFCA3AD82AE838C82C007C006C0051200FBD005D006D049
:2001A600078D828E838FF0121B6D70D522C03E85813EAF82E53E24FDF8E670328F05FE7554
:2001C6003F108E408D828E83C006C005121BBFAB82D005D00653050F8B82C0051200BA1276
:2001E60000FBD0058D821200BA1200FB807BE53E24FDF8B601737E00753F648E408F828EDD
:2002060083C007C006121BBFAC82D006D007753F647540008F828E83C007C006C004121B94
:2002260089753F0A754000121BBFAB82D004D006D007753F0A7540008F828E83C004C00306
:20024600121B89AE82D003D00474302CF582C006C0031200FBD00374302BF5821200FBD038
:200266000674302EF5821200FBD03E22C03E85813EAD82AE83AFF07C00E53E24FDF8C3EC44
:2002860096503B8D828E838FF0121B6DFBA3AD82AE83C007C006C005C004E53E24FCF8E6C9
:2002A600C0E08B821201B31581E53E24FBF886821200FBD004D005D006D0070C80BBD03E35
:2002C60022C03E85813EC082C083C0F0C0E0E5812404F5817B08A83E0886020886050886C1
:2002E600060886077C01C3EC9B5043C003753F0AE4F540F541F5428A828D838EF0EFC004AF
:20030600C003121A15C8E53E2405C8A68208A68308A6F008F6D003D004E53E2405F886028F
:200326000886050886060886070CD00380B8753F0AE4F540F541F5428A828D838EF0EFC057
:2003460003121992AC8274302CF5821200FBD003DB84853E81D03E221200E7E582600512D8
:2003660000F280F4901BFB75F0801201811200F2AF82C0071200FB1200F2AE82C0061200DD
:20038600FB75820A1200FBD006D0078E088F820200A0C03E85813EC082C083C0F07C00C0A5
:2003A600041200E7E582D0046009C0041200F2D00480EC7B00C004C0031200F2AA82C0029A
:2003C6001200FBD002D003D004BA0A19A83E08EC26FDE40836FE0886078D828E838FF0E47F
:2003E600121A7A8031A83E08EB26FDE40836FE0886078D828E838FF0EA121A7AE53E24FD7C
:20040600F8E6B5030C8D828E838FF0E4121A7A80050B8B04809F8C82853E81D03E22AE821B
:20042600AF837C007D007A007B00C3EA9EEB9F501F8C008D01C3E89478E99400500708B8ED
:2004460000F30980F0880489050ABA00DD0B80DA224390044390024390085390FE22AF822D
:200466007E005390FEE53F60035390F77D00EF30E70543900280035390FD8F04EC2CFF8EBE
:2004860004EC2CFE439001E59030E2034306015390FE0DBD080040D6E53F60034390088EDB
:2004A6008222AD82AE83AFF0E50C60035390F77C00C3EC950B502DEC2DF9E43EFA8F0389D4
:2004C600828A838BF0121B6DF9753F008982C007C006C005C004120464D004D005D006D0DB
:2004E600070C80CDE50C6003439008227F00753F007582FFC007120464AE82D007BEFF0413
:20050600758200220FBFFE0040E4758201224390087F00BF0A005010753F007582FFC007BE
:20052600120464D0070F80EB22AF827EFF5390F7C007C0061204F2D006D00774404FF58284
:20054600753F00C007C006120464D006D007851082753F00C007C006120464D006D0078529
:200566000F82753F00C007C006120464D006D007850E82753F00C007C006120464D006D006
:2005860007850D82753F00C007C006120464D006D007EF70047E958005BF08027E87753F55
:2005A600008E82C007120464D0077E00753F007582FFC007C006120464AD82D006D007ED15
:2005C60030E70A8E040EBC19E37582FE22E4BF080104FE7008BF3A02800302065CEE6033FC
:2005E6007E00BE03005014753F007582FFC006C005120464D005D0060E80E7753F007582D8
:20060600FFC005120464AE82D005BEAA02803A7582FF22BF3A33753F007582FFC0051204A4
:2006260064AF82D005BFC00280047582FF227F00BF03005014753F007582FFC007C0051240
:200646000464D005D0070F80E7753F007582FFC005120464D0058D8222AF82E4F50DF50E01
:20066600F50FF510758237C00712052FAE82D007BE010280047582FF2285110D85120E85FF
:20068600130F8514108F8202052F1205147F00E4F50DF50EF50FF510758200C00712052FA2
:2006A600AE82D007BE0102800A8F060FBE19E07582FE22750DAA750E01E4F50FF5107582DC
:2006C6000812052FAF82BF010280047582FF227F00E4F511F512F513751440758229C0070F
:2006E60012065FE582D007600A8F060FBE19E27582FE22E4F50DF50EF50FF51075823A122C
:20070600052FE58260047582FF2275820022C03E85813EAC82AD83AEF0FFE53E24FAF8E647
:2007260008467005F58202082DE53E24FAF8E53E24FCF9E726FA09E70836FBC3E49A7402E6
:200746009B500675820102082D5390F78C0D8D0E8E0F8F1075821112052FE5826006758217
:20076600FF02082D7F00753F007582FFC007120464AE82D007BEFF02800BBEFE02801275BD
:2007860082FD02082D8F060FBEFFDB7582FE02082DE53E24FCF8E53E24FAF9E726FE09E7C5
:2007A6000836FF7C007D0074FE2D4063753F007582FFC007C006C005C004120464AB82D084
:2007C60004D005D006D007E53E24FCF8C3EC96ED08964034EC9EED9F502EC006C007E53ECA
:2007E60024FCF8ECC396FAED0896FFE53E24F7F8EA26FAEF0836FF0886068A828F838EF076
:20080600EB121A7AD007D0060CBC009B0D8098753F007582FF120464753F007582FF120428
:2008260064439008758200D03E22AC82AD83AEF0FFC015C016C017E4C0E07402C0E0E4C091
:20084600E0C0E08C828D838EF0EF120714E58124F9F58122AD82AE83AFF074012DFAE43E82
:20086600FB8F048A828B838CF0121B6DFC7A008D828E838FF0121B6D7F004AF582EF4CF595
:200886008322C03E85813EC082C083C0F0E5812409F581E4FAFBFCFFE53E240CF87600E5B3
:2008A6003E240CF8B60400506FE53E2408F8080808A60418A60318A602187600E53E240CE8
:2008C600F886057E007403C39DFDE49EFEA83E08ED26FFEE0836FE0886058F828E838DF061
:2008E600121B6DFEE53E2404F8A606087600087600087600E53E2408F8E53E2404F9E74639
:20090600FA09E70846FB09E70846FC09E70846FFE53E240CF80680878A828B838CF0EF85C5
:200926003E81D03E22AD82AE83AFF07C00EC2DF9E43EFA8F0389828A838BF0121B6DFBEC73
:20094600253FF8E43540F9AA41888289838AF0121B6DF8EBB50002800475820122EB700338
:20096600F582220C80C7AD82AE83AFF07C00ECB5420475820022EC2DF9E43EFA8F0389823F
:200986008A838BF0121B6DFBEC253FF8E43540F9AA41888289838AF0121B6DF8EBB50002EB
:2009A600800475820122EB7003F582220C80BFAD82AE83AFF07C007B00BBFF00501BEB2D1E
:2009C600F8E43EF98F02888289838AF0121B6D70038C82220B8B0480E07582FF22AD82AEB1
:2009E60083AFF0740B2DFAE43EFB8F048A828B838CF0121B6DFC30E10475820122EC30E220
:200A06000475820222EC30E30475820322740C2DFAE43EFB8F048A828B838CF0121B6DFA11
:200A2600A3121B6D4A70047582FF22740E2DFDE43EFE8D828E838FF0121B6DFDA3121B6D5E
:200A4600FEA3121B6DFFA3121B6DFCED4E4F4C70047582FE2275820022AD82AE83AFF07C28
:200A660000BCFF00502FEC2DF9E43EFA8F0389828A838BF0121B6DF8700122B86100401253
:200A8600E82485400DE824E0F889828A838BF0121A7A0C80CC2285821B85831C85F01D12F1
:200AA6000A5F7C00BC0B005018EC2518F9E43519FAAB1A89828A838BF07420121A7A0C80B0
:200AC600E3740B2518FAE43519FBAC1A8A828B838CF0E4121A7A7C007B00BB081DEB251B62
:200AE600F8E4351CF9AA1D888289838AF0121B6DF8B82E02800475820122EB251BF8E4351F
:200B06001CF9AA1D888289838AF0121B6DFA7003F58222BA2E02801CEB2518F8E43519F9F2
:200B2600AF1A888289838FF0EA121A7A0B8B04BB090040A6751E0074FC251E5003020BE0F7
:200B46007403B51E2C8C057E00AA1E7B00EA2DFDEB3EFE0DBD00010EED251BFDEE351CFE4C
:200B6600AB1D8D828E838BF0121B6D6004758202228C057E00AA1E7B00EA2DF8EB3EF90868
:200B8600B8000109E8251BF8E9351CF9AF1D888289838FF0121B6D7003F5822274082AF994
:200BA600E43BFFE92518F9EF3519F8AF1AEA2DFDEB3EFE0DBD00010EED251BFDEE351CFE79
:200BC600AB1D8D828E838BF0121B6DFD898288838FF0121A7A051E020B3D75820322C03E53
:200BE60085813E05810581A93E0989057E007F40C001C005C006C0077402C0E0E4C0E074C3
:200C0600FEC0E0F4C0E0900000E4F5F0120714E58124F9F581D0018707BF550B098707BF49
:200C2600AA057582008003758201853E81D03E22AF828F05E4CDC4CD6DCD54F0CD6DFE74E8
:200C4600BE2DFD74013EFEEF24FB5004758201227484C0E07400C0E07440C0E07410C0E055
:200C6600E4C0E0C005C006900000E4F5F0120714E58124F9F581788886077843A60790005B
:200C86008C75F040120888AC82AD83AEF0FF7844A60408A60508A60608A60790009075F079
:200CA60040120888AC82AD83AEF0FF7848A60408A60508A60608A607758200227F007E00B5
:200CC600BE0400502B8E82C007C006120C36D006D00778438605BD06148E058DF005F0749D
:200CE60001800225E0D5F0FBFD8F044CFF0E80D08F8222901C1C75F080120181784C8604AB
:200D06000886050886060886078C828D838EF0EF1202C775822C1200FB7852860608860790
:200D26007D007C008E828F838DF0EC1202C775822C1200FB785486077E007D007C008F823D
:200D46008E838DF0EC1202C775822C1200FB785086060886077D007C008E828F838DF0EC9B
:200D66001202C775822C1200FB785586060886077D007C008E828F838DF0EC1202C775821E
:200D86002C1200FB785986060886077D007C008E828F838DF0EC1202C775822C1200FB781B
:200DA6005786060886077D007C008E828F838DF0EC1202C775822C1200FB785F8604088637
:200DC600050886060886078C828D838EF0EF1202C775822C1200FB786386040886050886C3
:200DE600060886078C828D838EF0EF1202C775822C1200FB7867860408860508860608869E
:200E0600078C828D838EF0EF1202C775822C1200FB75820A0200FBAF82786BE6B507047502
:200E2600820022786BA6078F82120C36E58260047582012278448604088605088606088633
:200E4600077494C0E07400C0E07440C0E07410C0E0E4C0E0C0E0C0E08C828D838EF0EF12F0
:200E66000714E58124F9F58178448604088605088606088607784CA60408A60508A6060879
:200E8600A60790009F75F04012085AE5828583F07852F608A6F078A186077854A6079000EB
:200EA600A275F04012085AE5828583F07850F608A6F0784486040886050886060886077440
:200EC60094C0E07400C0E07440C0E07410C0E0E4C0E07410C0E0E4C0E08C828D838EF0EF95
:200EE600120714E58124F9F58190009475F04012085AE5828583F07855F608A6F0900095A4
:200F060075F04012085AE5828583F07859F608A6F090009A75F04012085AAE82AF8378577A
:200F2600A60608A607785286040886058C1F8D20752100752200785486058D3F7540007591
:200F46004100754200851F828520838521F0E522C007C006121AFFAA82AB83ACF0FDD00627
:200F6600D007785BA60208A60308A60408A605784C861F088620088621088622785086043B
:200F8600088605E4FBFAEC251FF51FED3520F520EB3521F521EA3522F522785FA61F08A64B
:200FA6002008A62108A622785586820886838E3F8F40121A95AE82AF838E048F05E4FEFFC0
:200FC600EC251FF51FED3520F520EE3521F521EF3522F5227863A61F08A62008A62108A6CE
:200FE60022785986020886038A82EBC42354E0C582C423C5826582C58254E0C5826582F5D3
:20100600837852863F088640121969AA82AB83E4FEFFEA251FFAEB3520FBEE3521FEEF3552
:2010260022FF7867A60208A60308A60608A60775820022120E1DE5826004758201227852E3
:201046008606088607BE0005BF020280047582022275820022901C7175F080120181787E9F
:2010660086060886077D007C008E828F838DF0EC1202C7901C8475F0801201817F00BF08FB
:20108600005010EF246CF98782C0071200FBD0070F80EB7F00BF03005010EF2474F987821A
:2010A600C0071200FBD0070F80EB901C8C75F080120181787886060886077D007C008E823A
:2010C6008F838DF0EC1202C7901C9575F080120181787A86040886050886060886078C82B4
:2010E6008D838EF0EF1202C7901C9D75F08012018178778682E4C0E01201B3158175820AF8
:201106000200FB85822385832478598604088605C3E5239CE5249D400475820122786B86B4
:2011260082120E1D78638625088626088627088628AE23E524C42354E0CEC423CE6ECE543D
:20114600E0CE6EFF7852862908862A85293F852A408E828F83C007C006121969AA82AB83C4
:20116600D006D007E4FCFDEA2525FAEB3526FBEC3527FCED3528FD85293F852A408E828F6A
:2011860083C005C004C003C002121AB2AE82AF83D002D003D004D00574A4C0E07400C0E05E
:2011A6007440C0E003C0E0E4C0E0C006C0078A828B838CF0ED120714E58124F9F581787E82
:2011C600A62308A624788076000876000876000876007F00BF0800500FEF246CF9EF24A4B2
:2011E600F88606A7060F80EC7F08BF0B0050138F06EE24F82474F9EF24A4F88606A7060F62
:2012060080E878AF86077877A6079000BE75F04012085AE5828583F07878F608A6F0900036
:20122600C075F040120888AC82AD83AEF0FF787AA60408A60508A60608A60775820022785D
:201246006CE6FF70047582FF22BFE5047582E522BF2E0475822E2290006C75F0401209E32E
:20126600AF82BF0102801E90006C75F0401209E3AF82BF0202800E90006C75F0401209E317
:20128600AF82BF03047582FE2275820022121109E58260047582FF22121245AF82BFFF04B6
:2012A6007582FF22EF7003F5822275820122787E76FF0876FF7877860774044F7877F622C9
:2012C600787E86060886078E828F83A3121293AF82BFFF047582FF22BF010280E3EF70E006
:2012E600F58222C03EE581F53E240CF581AD82AE83AFF0AC3E0C8C18751900751A408D820D
:201306008E838FF0C004120A9CE582D00460057582018061C0041212B4D0048C0774082C97
:20132600FEC007C0061212C6E582D006D00770428F3FF54075414075420890006C75F04013
:20134600C007C00612096CE582D006D00770D28E3FF54075414075420390007475F040C002
:2013660007C00612096CE582D006D00770B3F5828003758202853E81D03E22C03EE581F51C
:201386003E2409F581AE82AF83E53E2408F9A83E08A601087600087640EE2EFEEF33FF7838
:2013A6005286050886048D3F8C408E828F83C007C006C005C004C001121AB2AB82AA83D01F
:2013C60001D004D005D006D007E53E2404F8C001795FE7F609E708F609E708F609E708F62D
:2013E600D0018D3F8C408E828F83C003C002C001121969AE82AF83D001D002D0038E048F89
:2014060005E4FEFFE53E2404F8EC26FCED0836FDEE0836FEEF0836FFC001A83E08E6C0E0DC
:2014260008E6C0E008E6C0E07402C0E0E4C0E0C003C0028C828D838EF0EF120714E5812429
:20144600F9F581D001E904F886078F067F0087057C00ED4FF582EC4EF583853E81D03E22DF
:20146600C03E85813EC082E5812410F581A83E08E67005F5820216C9A83E0886057E00ED4D
:2014860024FFFBEE34FFFCEB5205EC5206ED4E60067582FF0216C9A83E08087980E7F60938
:2014A600E708F609E708F609E708F6787A8602088605088606088607A83E0808E6B502118B
:2014C60008E6B5050C08E6B5060708E6B50702800280067582000216C9785B863F088640B0
:2014E600088641088642A83E080886820886830886F008E6121992AB82AC83E53E240AF86A
:20150600A60308A604A83E0808E6084608460846601FE53E240AF8E608467015787886822B
:20152600088683121381E5828583F07878F608A6F078788607088606A83E08087967E7F647
:2015460009E708F609E708F609E708F6EF24FEF582EE34FFF583785486038B3F75400012B4
:201566001A95AB82AF838F057E007F00A83E0808EB26F6ED0836F6EE0836F6EF0836F678EB
:201586005286020886048A3F8C40E53E240AF88682088683C004C002121969AE82AF83D096
:2015A60002D0047D007B00A83E0808EE26FEEF0836FFED0836FDEB0836FBE53E240EF8A6E4
:2015C6000608A60708A60508A6038A3F8C40E53E240AF88682088683121AB2C8E53E240CF6
:2015E600C8A68208A683A83E08087980E7F609E708F609E708F609E708F6A83E0886037D3A
:20160600007E007F00A83E0808EB26FBED0836FDEE0836FEEF0836FFE53E2406F8797AE728
:20162600F609E708F609E708F609E708F6E53E2406F8C3E69B08E69D08E69E08E69F501453
:20164600E53E2406F88607A83E08088602A83E08EFC39AF6A83E0886047D007E007F00A86A
:201666003E0808EC26FCED0836FDEE0836FEEF0836FF7880A60408A60508A60608A607A824
:201686003E0886067F00E53E24FBF8E6C0E008E6C0E008E6C0E0C006C007E53E240CF8E659
:2016A600C0E008E6C0E0E53E240EF886820886830886F008E6120714E58124F9F581A83E18
:2016C600088682853E81D03E22C03EE581F53E2408F5811212E9E582600B901CA775F08030
:2016E6001201818042AF3E0F8F047D007E40C007C004C005C006758208121466AE8215815D
:2017060015811581D0077D00C3ED9E5017ED2FF98782C007C006C0051200FBD005D006D096
:20172600070D80E4EE70C1853E81D03E227F007E7FEE14FE70FB0FBF7F0040F322120BE40E
:20174600E5826009901CB875F080120181120CC2E582FFFE70030218C37F00EE24FFFCEFC7
:2017660034FFFDEE5204EF5205EC4D7068FDFCBC04004001228CF005F07A017B008006EAA5
:201786002AFAEB33FBD5F0F7EE5202EF5203EA4B603E8D82C005120E1D901CCC75F0801271
:2017A6000181D005C005E4C0E08D821201B31581D0058D82121039E582700122901CDF75DF
:2017C600F08012018190195E75F08012018180FE0C8C05809A7D00BD04005075901CF37533
:2017E600F080C007C006C005120181D005C005E4C0E08D821201B3158175823E1200FBD0F2
:2018060005D006D0078DF005F07B017C008006EB2BFBEC33FCD5F0F7EE5203EF5204EB4C79
:201826006017901CFE75F080C007C006C005120181D005D006D0078015901D0575F080C048
:2018460007C006C005120181D005D006D0070D8086901D0E75F080C007C0061201811203F1
:201866005EAD82D006D007BD0400503D8DF005F07B017C008006EB2BFBEC33FCD5F0F7EB17
:201886005206EC5207EE4F6020901CCC75F080C005120181D005C005E4C0E08D821201B33F
:2018A6001581D0058D82020E1D901D2975F08012018190195E75F08012018180FE901D3D44
:2018C60075F08012018190195E75F08012018180FE752B68752C65752D6C752E6C752F6F4D
:2018E60075302E7531747532787533747534007535001200D812045712069012174390006C
:201906002B75F0401212E97436C0E07400C0E07440C0E0758208121466AF82158115811535
:1D19260081EF60177F00BF080050DCEF2436F98782C0071200FBD0070F80EB80FE5D
:201BFB004E756D62657220696E20486578202D20656728464520666F7220323534293A2094
:201C1B00005642523A2073746172742C6270732C7370632C72657365727665645365637439
:201C3B006F72732C6E6661742C6E726F6F74652C7370662C6661745F73746172742C726F27
:201C5B006F74655F73746172742C646174615F73746172740A000A524F4F545F454E545251
:201C7B00595F494E4445583A000A46494C453A20000A53544152543A20000A53495A453AEA
:0C1C9B0020000A415454523A20307800D6
:1B1943006E6279746573206D75737420626520706F776572206F6620320A0086
:111CA70046494C45204E4F5420464F554E440A2E0027
:0B195E0048414C54494E472E2E2E00ED
:201CB8004552524F523A4E4F204D425220464F554E440A00506172746974696F6E204D6F6E
:201CD800756E7465643A00496E636F6D70617469626C652046415431360A0050617274694F
:201CF80074696F6E2D0046415431360A00556E6B6E6F776E0A000A53656C6563742046418E
:201D180054313620506172746974696F6E2D3E0A00496E76616C69642073656C65637469D1
:1A1D38006F6E2E0A004E6F20464154313620506172746974696F6E2E0A004B
:201969007A10E4FBFCE58225E0F582E58333F583EB33FBEC33FCEB953FF5F0EC9540400624
:09198900FCABF0438201DADD221F
:20199200F9E53F45404541454260777800C308E54220E73BE53F25E0F53FE54033F540E534
:2019B2004133F541E54233F542E582953FE5839540E5F09541E9954250D4C3E54213F5429F
:2019D200E54113F541E54013F540E53F13F53FE582953FFCE5839540FDE5F09541FEE99516
:2019F200424007F98EF08D838C82C3E54213F542E54113F541E54013F540E53F13F53FD864
:031A1200CEE922F8
:201A1500FB7A20E4FCFDFEFFE5822582F582E58333F583E5F033F5F0EB33FB4017DAE9800A
:201A350042E5822582F582E58333F583E5F033F5F0EB33FBEC33FCED33FDEE33FEEF33FF39
:201A5500EC953FED9540EE9541EF95424013EC953FFCED9540FDEE9541FEEF9542FF43824B
:051A750001DABEEB22C6
:06003500E478FFF6D8FD9F
:200013007900E94400601B7A00901D52780175A000E493F2A308B8000205A0D9F4DAF27524
:02003300A0FF2C
:1B1A7A0020F71130F6138883A88220F509F6A8837583002280FEF280F5F0226B
:1D1A9500E582853FF0A4C582C0F08540F0A4D0F025F0C583853FF0A42583F583226E
:201AB200E53F454060467A01E53F25E0F53FE540334012F540E582953FE583954040030A49
:201AD20080E6C3E54013F540E53F13F53FC3E582953FF5F0E58395404005F58385F082C35C
:0D1AF200E54013F540E53F13F53FDAE12232
:201AFF00AAF0FBE582853FF0A4FCADF0E583853FF0A42DFDE435F0FEE5828540F0A42DFDFF
:201B1F00E5F03EFEE433FFEA853FF0A42EFEE5F03FFFE5838540F0A42EFEE5F03FFFE58297
:201B3F008541F0A42EFEE5F03FFFEB853FF0A42FFFEA8540F0A42FFFE5838541F0A42FFF1B
:0E1B5F00E5828542F0A42F8EF08D838C8222C9
:20003B007800E84400600A790175A000E4F309D8FC7800E84400600C7900900001E4F0A3C3
:04005B00D8FCD9FAFA
:0D0006007581C3121BF7E582600302000341
:1C1B6D0020F71430F6148883A88220F507E6A88375830022E280F7E49322E02287
:201B8900C2D5E58330E70DD2D5E4C39582F582E49583F583E54030E70BE4C3953FF53FE4EF
:161BA9009540F540121AB230D50BE4C39582F582E49583F5832263
:201BBF00C2D5E58330E70DD2D5E4C39582F582E49583F583E54030E70DB2D5E4C3953FF553
:181BDF003FE49540F54012196930D50BE4C39582F582E49583F5832252
:041BF70075820022D1
:00000001FF
