:03000000020006F5
:03005F0002000399
:030003000201D027
:100062007E007F007CC87D001CBCFF011DEC4D7032
:10007200F70EBE00010FC3EE94FAEF940040E57E46
:10008200007F007CC87D001CBCFF011DEC4D70F799
:100092000EBE00010FC3EE94FAEF940040E55390B8
:1000A200EF7E007F007C647D001CBCFF011DEC4DD7
:1000B20070F70EBE00010FC3EE94FAEF940040E514
:1000C200439010225390EF22AE82AF837C007D00DA
:1000D200C3EC9EED9F501B7A787B00EA24FFF8EB7D
:1000E20034FFF988028903E84970F00CBC00E10D85
:1000F20080DE22758920758DF3759850438780D2F2
:100102008E222098047582002275820122109802A4
:1001120080FB8599822285829910990280FB22AD0B
:1001220082AE83AFF07C00C3EC95085029EC2DF928
:10013200E43EFA8F0389828A838BF0120224F582CD
:10014200C007C006C005C004120118D004D005D0F3
:1001520006D0070C80D122AD82AE83AFF07C00C303
:10016200EC95095036EC2DF9E43EFA8F03C007C036
:1001720006C005C004C003C002C00112010FA8825C
:10018200D001D002D003D004D005D006D007898296
:100192008A838BF0E81202090C80C422AD82AE83FE
:1001A200AFF08D828E838FF0120224FCA3AD82AE5B
:1001B200838C82C007C006C005120118D005D00684
:1001C200D0078D828E838FF012022470D522120006
:1001D200F590024475F08012019E7F00BF05005029
:1001E20021758209C007120118D0078F0674302EBC
:1001F200F582C0071201189003E81200CAD0070F57
:0702020080DA1200C680FE45
:1002440048656C6C6F20576F726C642066726F6DBA
:10025400205379616D7075746572203A290A457866
:0C0264006974696E6720696E2E2E2E00F2
:06003500E478FFF6D8FD9F
:100013007900E94400601B7A00900270780175A0B2
:1000230000E493F2A308B8000205A0D9F4DAF2754C
:02003300A0FF2C
:1002090020F71130F6138883A88220F509F6A88310
:0B0219007583002280FEF280F5F022C9
:10003B007800E84400600A790175A000E4F309D860
:10004B00FC7800E84400600C7900900001E4F0A318
:04005B00D8FCD9FAFA
:0D00060075810A120240E5826003020003CA
:1002240020F71430F6148883A88220F507E6A88303
:1002340075830022E280F7E49322E0227582002293
:00000001FF
