:03000000020006F5
:03005F0002000399
:0300030002042DC7
:10006200AF82BF3000400DEF24C640088F06EE2459
:10007200D0F58222BF4100400DEF24B940088F061F
:1000820074C92EF58222BF6100400BEF249940060D
:1000920074A92FF5822275820022120062E582C4C1
:1000A20054F0FF850882C007120062AE82D007EECC
:1000B2002FF58222E582FF24F0500475825822EF48
:1000C20024F640088F0674302EF5822274372FF5FD
:1000D2008222758920758DF3759850438780D28E60
:1000E20022209804758200227582012210980280D3
:1000F200FB8599822285829910990280FB22AD822A
:10010200AE83AFF07C00C3EC95095029EC2DF9E4E5
:100112003EFA8F0389828A838BF0120615F582C01C
:1001220007C006C005C0041200F7D004D005D006EF
:10013200D0070C80D122AD82AE83AFF07C00C3EC3D
:10014200950A5036EC2DF9E43EFA8F03C007C0063B
:10015200C005C004C003C002C0011200EEA882D0D4
:1001620001D002D003D004D005D006D00789828AFC
:10017200838BF0E81205840C80C422AD82AE83AF7B
:10018200F08D828E838FF0120615FCA3AD82AE83B2
:100192008C82C007C006C0051200F7D005D006D079
:1001A200078D828E838FF012061570D522C00B85C3
:1001B200810BAF82E50B24FDF8E670328F05FE75E8
:1001C2000C108E0D8D828E83C006C005120667ABA1
:1001D20082D005D00653050F8B82C0051200B612DD
:1001E20000F7D0058D821200B61200F7807BE50B76
:1001F20024FDF8B601737E00750C648E0D8F828E1D
:1002020083C007C006120667AC82D006D007750C01
:1002120064750D008F828E83C007C006C00412066B
:1002220031750C0A750D00120667AB82D004D00638
:10023200D007750C0A750D008F828E83C004C0032F
:10024200120631AE82D003D00474302CF582C0067F
:10025200C0031200F7D00374302BF5821200F7D0DE
:100262000674302EF5821200F7D00B22C00B858166
:100272000BAD82AE83AFF07C00E50B24FDF8C3EC3E
:1002820096503B8D828E838FF0120615FBA3AD82B2
:10029200AE83C007C006C005C004E50B24FCF8E627
:1002A200C0E08B821201AF1581E50B24FBF8868238
:1002B2001200F7D004D005D006D0070C80BBD00BBB
:1002C20022C00B85810BC082C083C0F0C0E0E581F3
:1002D2002404F5817B08A80B088602088605088697
:1002E200060886077C01C3EC9B5043C003750C0AC9
:1002F200E4F50DF50EF50F8A828D838EF0EFC004C2
:10030200C00312051FC8E50B2405C8A68208A683F0
:1003120008A6F008F6D003D004E50B2405F88602FF
:100322000886050886060886070CD00380B8750C77
:100332000AE4F50DF50EF50F8A828D838EF0EFC07B
:100342000312049CAC8274302CF5821200F7D003A5
:10035200DB84850B81D00B221200E3E5826005125B
:1003620000EE80F49006A375F08012017D1200EE7B
:10037200AF82C0071200F71200EEAE82C006120072
:10038200F775820A1200F7D006D0078E088F820214
:10039200009CC00B85810BC082C083C0F07C00C072
:1003A200041200E3E582D0046009C0041200EED01A
:1003B2000480EC7B00C004C0031200EEAA82C002DB
:1003C2001200F7D002D003D004BA0A19A80B08EC25
:1003D20026FDE40836FE0886078D828E838FF0E4C0
:1003E2001205848031A80B08EB26FDE40836FE08CE
:1003F20086078D828E838FF0EA120584E50B24FD39
:10040200F8E6B5030C8D828E838FF0E412058480AA
:10041200050B8B04809F8C82850B81D00B221200EE
:10042200E3E58260051200EE80F422781076777898
:1004320011766F781276727813766C781476647807
:1004420015762E781676747817767878187674780A
:1004520019760A781A76001200D49006C475F080D4
:1004620012017D90001075F04012017D120473801C
:10047200E97E007F007CFF7D00EC24FFFAED34FF73
:10048200FB8A048B05EA4B70F00EBE00010FC3EE2F
:0A04920094FFEF6480948040DC22A8
:1006A3004E756D62657220696E20486578202D2035
:1006B300656728464520666F7220323534293A2013
:0C06C3000068656C6C6F2E7478740A007F
:10049C00F9E50C450D450E450F60777800C308E56E
:1004AC000F20E73BE50C25E0F50CE50D33F50DE5EC
:1004BC000E33F50EE50F33F50FE582950CE58395BC
:1004CC000DE5F0950EE9950F50D4C3E50F13F50F1C
:1004DC00E50E13F50EE50D13F50DE50C13F50CE516
:1004EC0082950CFCE583950DFDE5F0950EFEE995E6
:1004FC000F4007F98EF08D838C82C3E50F13F50F37
:10050C00E50E13F50EE50D13F50DE50C13F50CD8F2
:10051C00CEE922FB7A20E4FCFDFEFFE5822582F584
:10052C0082E58333F583E5F033F5F0EB33FB4017CD
:10053C00DAE98042E5822582F582E58333F583E5AD
:10054C00F033F5F0EB33FBEC33FCED33FDEE33FE27
:10055C00EF33FFEC950CED950DEE950EEF950F40EE
:10056C0013EC950CFCED950DFDEE950EFEEF950F35
:08057C00FF438201DABEEB220D
:06003500E478FFF6D8FD9F
:100013007900E94400601B7A009006CF780175A04F
:1000230000E493F2A308B8000205A0D9F4DAF2754C
:02003300A0FF2C
:1005840020F71130F6138883A88220F509F6A88392
:100594007583002280FEF280F5F022E50C450D60A3
:1005A400467A01E50C25E0F50CE50D334012F50D16
:1005B400E582950CE583950D40030A80E6C3E50DBD
:1005C40013F50DE50C13F50CC3E582950CF5F0E578
:1005D40083950D4005F58385F082C3E50D13F50D74
:0805E400E50C13F50CDAE1222D
:10003B007800E84400600A790175A000E4F309D860
:10004B00FC7800E84400600C7900900001E4F0A318
:04005B00D8FCD9FAFA
:1005EC007A10E4FBFCE58225E0F582E58333F583A4
:1005FC00EB33FBEC33FCEB950CF5F0EC950D400676
:09060C00FCABF0438201DADD22AF
:0D00060075811A12069FE582600302000357
:1006150020F71430F6148883A88220F507E6A8830E
:1006250075830022E280F7E49322E022C2D5E583B8
:1006350030E70DD2D5E4C39582F582E49583F58341
:10064500E50D30E70BE4C3950CF50CE4950DF50DC0
:1006550012059F30D50BE4C39582F582E49583F5A9
:100665008322C2D5E58330E70DD2D5E4C39582F563
:1006750082E49583F583E50D30E70DB2D5E4C395A6
:100685000CF50CE4950DF50D1205EC30D50BE4C316
:0E0695009582F582E49583F58322758200221A
:00000001FF
