:03000000020006F5
:03005F0002000399
:030003000204E113
:10006200AF82BF3000400DEF24C640088F06EE2459
:10007200D0F58222BF4100400DEF24B940088F061F
:1000820074C92EF58222BF6100400BEF249940060D
:1000920074A92FF5822275820022120062E582C4C1
:1000A20054F0FF850882C007120062AE82D007EECC
:1000B2002FF58222E582FF24F0500475825822EF48
:1000C20024F640088F0674302EF5822274372FF5FD
:1000D2008222758920758DF3759850438780D28E60
:1000E20022209804758200227582012210980280D3
:1000F200FB8599822285829910990280FB22AD822A
:10010200AE83AFF07C00C3EC95095029EC2DF9E4E5
:100112003EFA8F0389828A838BF012068BF582C0A6
:1001220007C006C005C0041200F7D004D005D006EF
:10013200D0070C80D122AD82AE83AFF07C00C3EC3D
:10014200950A5036EC2DF9E43EFA8F03C007C0063B
:10015200C005C004C003C002C0011200EEA882D0D4
:1001620001D002D003D004D005D006D00789828AFC
:10017200838BF0E81205FA0C80C422AD82AE83AF05
:10018200F08D828E838FF012068BFCA3AD82AE833C
:100192008C82C007C006C0051200F7D005D006D079
:1001A200078D828E838FF012068B70D522C00B854D
:1001B200810BAF82E50B24FDF8E670328F05FE75E8
:1001C2000C108E0D8D828E83C006C0051206DDAB2B
:1001D20082D005D00653050F8B82C0051200B612DD
:1001E20000F7D0058D821200B61200F7807BE50B76
:1001F20024FDF8B601737E00750C648E0D8F828E1D
:1002020083C007C0061206DDAC82D006D007750C8B
:1002120064750D008F828E83C007C006C00412066B
:10022200A7750C0A750D001206DDAB82D004D0064C
:10023200D007750C0A750D008F828E83C004C0032F
:100242001206A7AE82D003D00474302CF582C00609
:10025200C0031200F7D00374302BF5821200F7D0DE
:100262000674302EF5821200F7D00B22C00B858166
:100272000BAD82AE83AFF07C00E50B24FDF8C3EC3E
:1002820096503B8D828E838FF012068BFBA3AD823C
:10029200AE83C007C006C005C004E50B24FCF8E627
:1002A200C0E08B821201AF1581E50B24FBF8868238
:1002B2001200F7D004D005D006D0070C80BBD00BBB
:1002C20022C00B85810BC082C083C0F0C0E0E581F3
:1002D2002404F5817B08A80B088602088605088697
:1002E200060886077C01C3EC9B5043C003750C0AC9
:1002F200E4F50DF50EF50F8A828D838EF0EFC004C2
:10030200C003120595C8E50B2405C8A68208A6837A
:1003120008A6F008F6D003D004E50B2405F88602FF
:100322000886050886060886070CD00380B8750C77
:100332000AE4F50DF50EF50F8A828D838EF0EFC07B
:1003420003120512AC8274302CF5821200F7D0032E
:10035200DB84850B81D00B221200E3E5826005125B
:1003620000EE80F490071975F08012017D1200EE04
:10037200AF82C0071200F71200EEAE82C006120072
:10038200F775820A1200F7D006D0078E088F820214
:10039200009CC00B85810BC082C083C0F07C00C072
:1003A200041200E3E582D0046009C0041200EED01A
:1003B2000480EC7B00C004C0031200EEAA82C002DB
:1003C2001200F7D002D003D004BA0A19A80B08EC25
:1003D20026FDE40836FE0886078D828E838FF0E4C0
:1003E2001205FA8031A80B08EB26FDE40836FE0858
:1003F20086078D828E838FF0EA1205FAE50B24FDC3
:10040200F8E6B5030C8D828E838FF0E41205FA8034
:10041200050B8B04809F8C82850B81D00B22AE82D0
:10042200AF837C007D00C3EC9EED9F50117B00BB2F
:10043200FF0050030B80F80CBC00EB0D80E8221289
:1004420000E3E58260F91200EEAE827F00C007C0D1
:10045200061200EEAD82D006D0077C00ED4207EC1A
:100462004206C007C0061200EEAD82D006D0078F4A
:10047200828E83EDF07582570200F71200E3E58267
:1004820060F91200EEAE827F00C007C0061200EED5
:10049200AD82D006D0077C00ED4207EC42068F8287
:1004A2008E83E0F5820200F71200E3E58260051216
:1004B20000EE80F41200E3E58260F91200EEAF82F2
:1004C200BF52028013BF56028005BF5711800C90A5
:1004D200073A75F08002017D02047D020441221276
:1004E20000D41204AA80FB7E007F007CFF7D00EC1A
:1004F20024FFFAED34FFFB8A048B05EA4B70F00E01
:10050200BE00010FC3EE94FFEF6480948040DC22B2
:100719004E756D62657220696E20486578202D20BE
:10072900656728464520666F7220323534293A209C
:10073900004953415F53455249414C5F4C4F414435
:0E07490045525F56302E313A383035320A00B4
:10051200F9E50C450D450E450F60777800C308E5F7
:100522000F20E73BE50C25E0F50CE50D33F50DE575
:100532000E33F50EE50F33F50FE582950CE5839545
:100542000DE5F0950EE9950F50D4C3E50F13F50FA5
:10055200E50E13F50EE50D13F50DE50C13F50CE59F
:1005620082950CFCE583950DFDE5F0950EFEE9956F
:100572000F4007F98EF08D838C82C3E50F13F50FC0
:10058200E50E13F50EE50D13F50DE50C13F50CD87C
:10059200CEE922FB7A20E4FCFDFEFFE5822582F50E
:1005A20082E58333F583E5F033F5F0EB33FB401757
:1005B200DAE98042E5822582F582E58333F583E537
:1005C200F033F5F0EB33FBEC33FCED33FDEE33FEB1
:1005D200EF33FFEC950CED950DEE950EEF950F4078
:1005E20013EC950CFCED950DFDEE950EFEEF950FBF
:0805F200FF438201DABEEB2297
:06003500E478FFF6D8FD9F
:100013007900E94400601B7A00900757780175A0C6
:1000230000E493F2A308B8000205A0D9F4DAF2754C
:02003300A0FF2C
:1005FA0020F71130F6138883A88220F509F6A8831C
:10060A007583002280FEF280F5F022E50C450D602C
:10061A00467A01E50C25E0F50CE50D334012F50D9F
:10062A00E582950CE583950D40030A80E6C3E50D46
:10063A0013F50DE50C13F50CC3E582950CF5F0E501
:10064A0083950D4005F58385F082C3E50D13F50DFD
:08065A00E50C13F50CDAE122B6
:10003B007800E84400600A790175A000E4F309D860
:10004B00FC7800E84400600C7900900001E4F0A318
:04005B00D8FCD9FAFA
:100662007A10E4FBFCE58225E0F582E58333F5832D
:10067200EB33FBEC33FCEB950CF5F0EC950D4006FF
:09068200FCABF0438201DADD2239
:0D00060075810F120715E5826003020003EB
:10068B0020F71430F6148883A88220F507E6A88398
:10069B0075830022E280F7E49322E022C2D5E58342
:1006AB0030E70DD2D5E4C39582F582E49583F583CB
:1006BB00E50D30E70BE4C3950CF50CE4950DF50D4A
:1006CB0012061530D50BE4C39582F582E49583F5BC
:1006DB008322C2D5E58330E70DD2D5E4C39582F5ED
:1006EB0082E49583F583E50D30E70DB2D5E4C39530
:1006FB000CF50CE4950DF50D12066230D50BE4C329
:0E070B009582F582E49583F5832275820022A3
:00000001FF
