:03000000020006F5
:03005F0002000399
:030003000201CC2B
:100062007E007F007CC87D001CBCFF011DEC4D7032
:10007200F70EBE00010FC3EE94FAEF940040E57E46
:10008200007F007CC87D001CBCFF011DEC4D70F799
:100092000EBE00010FC3EE94FAEF940040E55390B8
:1000A200EF7E007F007C647D001CBCFF011DEC4DD7
:1000B20070F70EBE00010FC3EE94FAEF940040E514
:1000C20043901022AE82AF837C007D00C3EC9EED94
:1000D2009F501B7A787B00EA24FFF8EB34FFF98803
:1000E200028903E84970F00CBC00E10D80DE227544
:1000F2008920758DF3759850438780D28E2220987F
:1001020004758200227582012210980280FB859973
:10011200822285829910990280FB22AD82AE83AF42
:10012200F07C00C3EC95085029EC2DF9E43EFA8FDF
:100132000389828A838BF0120219F582C007C006F6
:10014200C005C004120114D004D005D006D0070C9B
:1001520080D122AD82AE83AFF07C00C3EC95095012
:1001620036EC2DF9E43EFA8F03C007C006C005C085
:1001720004C003C002C00112010BA882D001D00248
:10018200D003D004D005D006D00789828A838BF0B1
:10019200E81201FE0C80C422AD82AE83AFF08D82E4
:1001A2008E838FF0120219FCA3AD82AE838C82C0C3
:1001B20007C006C005120114D005D006D0078D82F3
:1001C2008E838FF012021970D5221200F190006412
:1001D2001200C690023975F08012019A4390809005
:1001E20000641200C653907F120100E58260DE12A5
:0C01F200010BAF82BF58D612006280D112
:1002390048656C6C6F20576F726C642066726F6DC5
:0F024900205379616D7075746572203A290A002F
:06003500E478FFF6D8FD9F
:100013007900E94400601B7A00900258780175A0CA
:1000230000E493F2A308B8000205A0D9F4DAF2754C
:02003300A0FF2C
:1001FE0020F71130F6138883A88220F509F6A8831C
:0B020E007583002280FEF280F5F022D4
:10003B007800E84400600A790175A000E4F309D860
:10004B00FC7800E84400600C7900900001E4F0A318
:04005B00D8FCD9FAFA
:0D00060075810A120235E5826003020003D5
:1002190020F71430F6148883A88220F507E6A8830E
:1002290075830022E280F7E49322E022758200229E
:00000001FF
