:03000000020006F5
:03005F0002000399
:030003000201CC2B
:200062007E007F007CC87D001CBCFF011DEC4D70F70EBE00010FC3EE94FAEF940040E57EEA
:20008200007F007CC87D001CBCFF011DEC4D70F70EBE00010FC3EE94FAEF940040E55390E3
:2000A200EF7E007F007C647D001CBCFF011DEC4D70F70EBE00010FC3EE94FAEF940040E59D
:2000C20043901022758920758DF3759850438780D28E222098047582002275820122109846
:2000E2000280FB8599822285829910990280FB22AD82AE83AFF07C00C3EC95085029EC2D7E
:20010200F9E43EFA8F0389828A838BF0120219F582C007C006C005C0041200E9D004D00545
:20012200D006D0070C80D122AD82AE83AFF07C00C3EC95095036EC2DF9E43EFA8F03C007BC
:20014200C006C005C004C003C002C0011200E0A882D001D002D003D004D005D006D0078997
:20016200828A838BF0E81201FE0C80C422AD82AE83AFF08D828E838FF0120219FCA3AD826F
:20018200AE838C82C007C006C0051200E9D005D006D0078D828E838FF012021970D522AE6E
:2001A20082AF837C007D00C3EC9EED9F501B7A787B00EA24FFF8EB34FFF988028903E8497C
:2001C20070F00CBC00E10D80DE221200C69000641201A190023975F08012016F43908090F2
:1C01E20000641201A153907F1200D5E58260DE1200E0AF82BF58D612006280D126
:1F02390048656C6C6F20576F726C642066726F6D205379616D7075746572203A290A003F
:06003500E478FFF6D8FD9F
:200013007900E94400601B7A00900258780175A000E493F2A308B8000205A0D9F4DAF27539
:02003300A0FF2C
:1B01FE0020F71130F6138883A88220F509F6A8837583002280FEF280F5F02200
:20003B007800E84400600A790175A000E4F309D8FC7800E84400600C7900900001E4F0A3C3
:04005B00D8FCD9FAFA
:0D00060075810A120235E5826003020003D5
:1C02190020F71430F6148883A88220F507E6A88375830022E280F7E49322E022F4
:0402350075820022AC
:00000001FF
